:10000000020DBFE518240CF8E60518227809300720
:1000100002780CE475F0011205D50204B72000EB5C
:100020007F2ED2008018EF540F2490D43440D4FF98
:1000300030040BEF24BFB41A0050032461FFE5190C
:1000400060021519051CE51C7002051B30070D78B0
:1000500009E475F0011205D5EF0204FD020BFE74F0
:1000600003D2078003E4C207F5188B098A0A890BBB
:10007000E4F519F51BF51CE51960077F2012003E19
:1000800080F5751AFFC201C200C202C203C205C2D6
:1000900006C20812000CFF700D3007057F00120029
:1000A0004FAF1CAE1B22B4255FC2D5C20412000C98
:1000B000FF24D0B40A00501A75F00A781930D5051B
:1000C00008B6FF0106C6A426F620D5047002D203A6
:1000D00080D924CFB41A00EF5004C2E5D204020242
:1000E0004FD20180C6D20080C0D20280BCD2D5805F
:1000F000BAD20580B47F2012003E2002077401B5F9
:10010000190040F1120003FF12003E020077D208EE
:10011000D2068095120003FB120003FA120003F9C5
:100120004A4B700679207A037BFF20022EE5196086
:100130002A7E008E827583001204D060060EEE6562
:100140001A70F0C2D5EBC0E0EAC0E0E9C0E0EE1200
:100150000296D0E0F9D0E0FAD0E0FB1204B7FF60DD
:10016000AAEBC0E0EAC0E0E9C0E012003ED0E02423
:1001700001F9D0E03400FAD0E0FBE51A0460DCD5E8
:100180001AD980877BFF7A027992D202809C7910FB
:1001900080027908C206C2088008D2D5790A800494
:1001A000790AC2D5E51A047002F51AE4FAFDFEFFD9
:1001B000120003FC7B08200113120003FD7B1030AA
:1001C000000A120003FE120003FF7B20EC3382D5ED
:1001D00092D55013C3E43000069FFFE49EFEE42056
:1001E00001039DFDE49CFCE4CBF8C201EC700CCF54
:1001F000CECDCCE824F8F870F38017C3EF33FFEED0
:1002000033FEED33FDEC33FCEB33FB994002FB0F87
:10021000D8E9EB300105F8D0E0C448B201C0E00AEB
:10022000EC4D4E4F78207B0070C2EAB51A0040BCFE
:10023000C0E0120298D0F0D0E0200104C4C0E0C4B5
:10024000B201C0F0120027D0F0D5F0EB0200771217
:1002500005E5011453018E5800E54C00E14201927E
:100260004F019A44019A4900FA4301A0550184467E
:1002700001844501844703405000E92D00ED2E0123
:10028000102B00F123010E2003292A00A9480000A9
:1002900001083F3F3F00790AA2D520031430050929
:1002A000B910020404B9080104A2D52006025001C5
:1002B000042002689202B519005034C0E07F20305B
:1002C00003197F30A20272067205500F1202EFC2AC
:1002D00002C206C205C2087F30800F300503E9C0A4
:1002E000E012003E300503D0E0F9D0E0B519CC3083
:1002F00005177F30B9100C12003E7F583004077F7D
:10030000788003B9080312003E3002057F2D0200F9
:100310003E7F202008F87F2B2006F322920280CF18
:10032000286E756C6C2900D2011200033001F8C2EE
:1003300001781930D50108F60200A92D504349581B
:100340001200032403B405004001E490033B931220
:10035000002F743A12002FD20375190402018E7F08
:1003600064120D37120D4A7BFF7A0679F012006590
:10037000120B6E8F08120CB17BFF7A0679F7120010
:1003800065120DCBEF6008120D8AEF641460077FD1
:1003900064120D3780EB7FC8120D37E4F5087F3209
:1003A000120D377BFF7A077903120065120E19EFE1
:1003B000641460090508E508C3940A40E17B007AEB
:1003C000007953120C6D8F08E508B424162453F8F5
:1003D000E4F6F50C750D00750E5B7BFF7A07790C62
:1003E0001200657BFF7A07791B12006512060B8FDE
:1003F00008E50864146018E508F460137BFF7A07C9
:10040000793B1200657F64120D3712060B8F08E5E9
:1004100008641470697BFF7A0779461200657BFFD8
:100420007A0779501200657BFF7A07795F120D9980
:100430008F08120CB17853764F08764B750E007505
:100440000F007510007B007A0079537D027C00124A
:1004500009178F08120CB17BFF7A07796C120065BF
:100460007F01120DE78F08120CB1120AB97BFFBF92
:1004700014067A07797380117A077982800BE50870
:10048000B4FF0B7BFF7A0779931200658005AF08F4
:10049000120CB17BFF7A07799E120065120DCBEF2B
:1004A0006006120D8ABF14077F64120D3780ED7F3E
:1004B000C8120D37020378BB010689828A83E022C5
:1004C0005002E722BBFE02E32289828A83E4932260
:1004D000BB010CE58229F582E5833AF583E02250E1
:1004E00006E92582F8E622BBFE06E92582F8E2222B
:1004F000E58229F582E5833AF583E49322BB010680
:1005000089828A83F0225002F722BBFE01F322F88F
:10051000BB010DE58229F582E5833AF583E8F022F7
:100520005006E92582C8F622BBFE05E92582C8F2FD
:1005300022BB010789828A830205BF500B09C5F0DF
:1005400027F7C5F01937F722BBFE0D09F8E325F0B0
:10055000F3C5F019E338F322F889828A8374019392
:1005600025F0C5F0F8E4933822BB010A89828A831A
:10057000F0E5F0A3F0225006F709A7F01922BBFE20
:1005800006F3E5F009F31922EB9FF5F0EA9E42F03D
:10059000E99D42F0E89C45F022E8600FECC313FCB3
:1005A000ED13FDEE13FEEF13FFD8F122E8600FEF1D
:1005B000C333FFEE33FEED33FDEC33FCD8F122C53F
:1005C000F0F8A3E028F0C5F0F8E582158270021576
:1005D00083E038F022FAE6FB0808E6F925F0F61881
:1005E000E6CA3AF622D083D082F8E49370127401FE
:1005F00093700DA3A393F8740193F5828883E47339
:100600007402936860EFA3A3A380DF7F20120DA77D
:100610008F0A750B00750C00750D53E4F509AB0BD3
:10062000E50D240FF9E4350CFA7E00E92509F9EE11
:100630003AFAE41204FD0509E509B410E1AB0BAA8E
:100640000CA90D900008741012050F90000C748016
:1006500012050FE50AAB0BAA0CA90D90000E30E6AF
:100660001A740A12050F90000F745A12050F9000A9
:1006700011743F12050F9000178018740612050FB1
:1006800090000F741A12050F900011743F12050F9D
:10069000900013741012050FAB0BAA0CA90D7D1F4F
:1006A000120CF17F50120DFF8F09E5096414702DB3
:1006B000FB7A007953120C6D8F09E509D39403403E
:1006C00019E50A30E604785680027855E6F509E522
:1006D0000930E7037FFF227F14227F1F22120D21A2
:1006E000AF09224572726F723A20253032580A00E3
:1006F00053746172740A0057616974205564697398
:100700006B0A005265616479203F0A005564697381
:100710006B496E666F3A2025730A00436865636B08
:10072000204469736B2057726974652050726F742E
:10073000656374203F202E2E2E0A00416761696E8A
:10074000202E2E2E0A002E2E2E204E6F20210A0043
:1007500043726561746520612046696C650A005CBE
:100760004E455746494C452E54585400436C6F73C0
:10077000650A00536166652052656D6F76652021BC
:100780000A00556E736166652052656D6F7665204F
:10079000210A002E2E2E2059657320210A00546153
:1007A0006B65206F75740A008B2A8A2B892C8B2D20
:1007B0008A2E892FAB2DAA2EA92F1204B7600D7493
:1007C00001252FF52FE4352EF52E80E8AB2DAA2E2E
:1007D000A92F1204B7FF645C6028EF642F6023E543
:1007E0002A852B83852C826B7008E965827003EA69
:1007F0006583600E74FF252FF52F74FF352EF52EBF
:1008000080CAE52A852B83852C82652D700AE52F09
:1008100065827004E52E6583600B7401252FF52F2A
:10082000E4352EF52EC3E52F952CFF22120DD8CDE1
:10083000EFCD120DD8CEEFCE120DD88F51120DD8AC
:100840008F52CFEECFEFFEEDFFE4FCFDECC0E0ED0C
:10085000C0E0EEC0E0EFC0E0AF51E4FE781012055A
:10086000ACD0E0FBD0E0FAD0E0F9D0E0F8EF4BFFFD
:10087000EE4AFEED49FDEC48FCECC0E0EDC0E0EED8
:10088000C0E0EFC0E0AF52E4FCFDFE78181205AC0A
:10089000D0E0FBD0E0FAD0E0F9D0E0F8EF4BFFEE8B
:1008A0004AFEED49FDEC48FC228B228A2389247FF5
:1008B0003A120D5BCFEDCF120D84CFECCF120D8429
:1008C000E52845294527600CAB27AA28A929E4F586
:1008D000F0120569120A39CEEFCEEE641D7034AB0A
:1008E00022AA23A924120C6DCEEFCE7F3B120D5B02
:1008F000EEFD7C002524F524EC3523F523E5284581
:1009000029452760CFAB27AA28A929EC8DF012052D
:100910003180C1CFEECF228B098A0A890B7F3C122E
:100920000D5BCFEDCF120D84CFECCF120D84E50F10
:100930004510450E600CAB0EAA0FA910E4F5F0129D
:100940000569120A39CEEFCEEE641E7034AB09AAE7
:100950000AA90B120C8FCEEFCE7F3D120D5BEEFD80
:100960007C00250BF50BEC350AF50AE50F45104523
:100970000E60CFAB0EAA0FA910EC8DF012053180DE
:10098000C1CFEECF228B3A8A3B893C8D3DE4FF7587
:100990003E01AB3AAA3BA93C853E82758300120416
:1009A000D0FE645C600CEE642F6007EE6004053ED0
:1009B00080E0EE6004053E8003E4F53EAB3A7E0045
:1009C000E53C2FF9EE353BFA120C25E53E601A6541
:1009D0003D6016EF6441600DBF14037F4322BF42A8
:1009E000037FB32222AF3E80A9228B4E8A4F8950CB
:1009F000EA494B603E7F01AB4EAA4FA9508F8275EA
:100A000083001204D0FE645C600BEE642F6006EE7F
:100A100060030F80E2EE6012AB4EAA4FA950120E97
:100A20001FBF1405EF6441600A22AB4EAA4FA950C4
:100A3000120BD27F35120DFF22E4F514F513F512D7
:100A4000F5117F407E4B7D4C7C00AB14AA13A9129C
:100A5000A811C31205885020120DCBEF6003020DC0
:100A6000DEE5142401F514E43513F513E43512F52D
:100A700012E43511F51180CA7FFA22E4F539F53810
:100A8000F537F5367F64CEEFCE7F0D120D7EAF3990
:100A9000120D84E538FF120D84AF39AE38AD37AC96
:100AA000367810120599120D84AF39AE38AD37ACD7
:100AB000367818120599020D84E4F5097F32120D7B
:100AC00037120E19EF641460090509E509C394147F
:100AD00040EA7F05120D37E4FD7F49120E06CCEF88
:100AE000CC7F05120D37E509C394145006BC1403DE
:100AF0007F14227FFF228B3F8A4089411207A88FF3
:100B000042E542601CAB3FAA40A941FD120985EFB6
:100B10006441600DBF14037F4322BF42037FB322B1
:100B200022AB3F7E00E5412542F9EE3540FA120D39
:100B300099228F468E458D448C437F39120D5BAFD1
:100B400046120D84E545FF120D84AF46AE45AD4417
:100B5000AC437810120599120D84AF46AE45AD44F2
:100B6000AC437818120599120D84120A3922120E1C
:100B70002B7F06120D5B7F65120D84120DD8EF647A
:100B80009A60037FFA227F15120D5B7F06120D8497
:100B90007F14120D73120DD8BF51037F14227FFAF8
:100BA000228F4A8E498D488C477F4A120D5BAF4A8F
:100BB000120D84E549FF120D84AF4AAE49AD48AC31
:100BC000477810120599120D84E4FF120D84120A61
:100BD00039227F2F120D5B1204B7FEFF801AEE60E0
:100BE0001C740129F9E43AFA1204B7FE645C60034C
:100BF000BE2F02E4FECFEECF120D8480E122EFB4CF
:100C00000A07740D120C09740A309811A899B813C8
:100C10000CC2983098FDA899C298B811F63099FD89
:100C2000C299F599228B1D8A1E891F120BD2AB1D0A
:100C3000AA1EA91F1204B7FF645C6004EFB42F035F
:100C4000120A7B7F32120DFF228B4B8A4C894D1288
:100C50000BD2AB4BAA4CA94D1204B7FF645C6004E5
:100C6000EFB42F03120A7B7F40120DFF227F271261
:100C70000DD5CEEFCECDEECDEE6010120DD8EF1229
:100C800004FD740129F9E43AFADEF0CFEDCF227FBA
:100C90002D120DD5CEEFCECDEECDEE60101204B7F5
:100CA000FF120D84740129F9E43AFADEF0CFEDCF9A
:100CB00022EF6414601A7BFF7A0679E3750C008FCB
:100CC0000D1200657FC8120D377FC8120D3780F4F2
:100CD000227F2E120D7BAF34120D84E53460111289
:100CE00004B7FF120D84740129F9E43AFAD534EF00
:100CF000227F2C120D7BEE60101204B7FF120D84C0
:100D0000740129F9E43AFADEF022CEEDCECDEFCD32
:100D10007F0B120D5BCFEDCF120D84CFEECF020D06
:100D2000847F05120D377F5A120DFFCCEFCC7F0563
:100D3000120D37CFECCF22CDEFCDCFEDCF1DEF6031
:100D400008120D6C120D6C80F12275985075878019
:100D5000758921758DF3D28ED2992290BDF1EFF075
:100D60007F0A90BDF1E030E402DFF7227FFA120D36
:100D7000737FFACEEFCE1FEE70F922CEEDCE120DBC
:100D80005BCFEECF90BCF0EFF022120DCBEF600303
:100D9000120DDE7F30120DFF22EA494B6003120B69
:100DA000D27F34120DFF22CEEFCE7F0A120D7E12BB
:100DB0000DD822CEEFCE7F0C120D7E12082C227899
:100DC0007FE4F6D8FD75819202035F30B2047F00A4
:100DD00080027F0122120D5B90BCF0E0FF227F2297
:100DE000120D5B120DD822CDEFCD7F36120E0622EA
:100DF0007DFF7F37120E0622E4FD7F0D020D0A12E1
:100E00000D5B120A3922120D7B120A39227F6812F9
:100E10000DB3227F2B120DA7227F31120DFF227DF1
:0C0E2000FF120985227F38120DFF2222EC
:00000001FF
