:1000000002113FE5442438F8E605442278353007EC
:10001000027838E475F0011207110205BA2000EBEE
:100020007F2ED2008018EF540F2490D43440D4FF98
:1000300030040BEF24BFB41A0050032461FFE545E0
:10004000600215450548E5487002054730070D7800
:1000500035E475F001120711EF020600020FC674B5
:1000600003D2078003E4C207F5448B358A3689370B
:10007000E4F545F547F548E54560077F2012003E69
:1000800080F57546FFC201C200C202C203C205C2AA
:1000900006C20812000CFF700D3007057F00120029
:1000A0004FAF48AE4722B4255FC2D5C20412000C40
:1000B000FF24D0B40A00501A75F00A784530D505EF
:1000C00008B6FF0106C6A426F620D5047002D203A6
:1000D00080D924CFB41A00EF5004C2E5D204020242
:1000E0004FD20180C6D20080C0D20280BCD2D5805F
:1000F000BAD20580B47F2012003E2002077401B5F9
:10010000450040F1120003FF12003E020077D208C2
:10011000D2068095120003FB120003FA120003F9C5
:100120004A4B700679207A037BFF20022EE545605A
:100130002A7E008E827583001205D360060EEE655E
:100140004670F0C2D5EBC0E0EAC0E0E9C0E0EE12D4
:100150000296D0E0F9D0E0FAD0E0FB1205BAFF60D9
:10016000AAEBC0E0EAC0E0E9C0E012003ED0E02423
:1001700001F9D0E03400FAD0E0FBE5460460DCD5BC
:1001800046D980877BFF7A027992D202809C7910CF
:1001900080027908C206C2088008D2D5790A800494
:1001A000790AC2D5E546047002F546E4FAFDFEFF81
:1001B000120003FC7B08200113120003FD7B1030AA
:1001C000000A120003FE120003FF7B20EC3382D5ED
:1001D00092D55013C3E43000069FFFE49EFEE42056
:1001E00001039DFDE49CFCE4CBF8C201EC700CCF54
:1001F000CECDCCE824F8F870F38017C3EF33FFEED0
:1002000033FEED33FDEC33FCEB33FB994002FB0F87
:10021000D8E9EB300105F8D0E0C448B201C0E00AEB
:10022000EC4D4E4F78207B0070C2EAB5460040BCD2
:10023000C0E0120298D0F0D0E0200104C4C0E0C4B5
:10024000B201C0F0120027D0F0D5F0EB0200771217
:100250000721011453018E5800E54C00E142019240
:100260004F019A44019A4900FA4301A0550184467E
:1002700001844501844703405000E92D00ED2E0123
:10028000102B00F123010E2003292A00A9480000A9
:1002900001083F3F3F00790AA2D520031430050929
:1002A000B910020404B9080104A2D52006025001C5
:1002B000042002689202B545005034C0E07F20302F
:1002C00003197F30A20272067205500F1202EFC2AC
:1002D00002C206C205C2087F30800F300503E9C0A4
:1002E000E012003E300503D0E0F9D0E0B545CC3057
:1002F00005177F30B9100C12003E7F583004077F7D
:10030000788003B9080312003E3002057F2D0200F9
:100310003E7F202008F87F2B2006F322920280CF18
:10032000286E756C6C2900D2011200033001F8C2EE
:1003300001784530D50108F60200A92D50434958EF
:100340001200032403B405004001E490033B931220
:10035000002F743A12002FD20375450402018E8FCC
:100360002975F012EFA42400F582E5F03400120E96
:1003700001E52975F012A42404F9740035F07538EC
:1003800001F539893A7BFF7A087989120065E529F8
:1003900075F012A42404F9740035F0FA7B01120FF1
:1003A000688F2AE52AB414037F4322E52A6441605A
:1003B00003AF2A22E529600F7F601211338F348E3C
:1003C000338D328C318009E4F534F533F532F53173
:1003D000E4FF12116785344085333F85323E853115
:1003E0003D7F60120E177BFF7A08799D120A887F85
:1003F000321210DB120E4A8F2AE52A641D600302B6
:1004000005AFFB7A00795D120FED7F331210DB7AB6
:1004100000795D8B2B8A2C892D1205BAFF642E6022
:10042000D3EFB4050BAB2BAA2CA92D74E512060053
:10043000AB2BAA2CA92D9000081205D3FFB4480AB3
:100440009000091205D364206016EFB4451B90009C
:10045000091205D3B4581290000A1205D3B4450905
:100460007BFF7A08799F120065C3E55C9428E55B01
:100470009400400302059CAE5BAF5C7C007D1212D1
:10048000061274042FF974003E752E01F52F893081
:10049000E4F52AAB2BAA2CA92D852A82758300129C
:1004A00005D36420603EE52AB40816AB2EAA2FA916
:1004B00030742E12060074012530F530E4352FF526
:1004C0002FAB2BAA2CA92D852A827583001205D368
:1004D000AB2EAA2FA93012060074012530F530E4A6
:1004E000352FF52F052AE52AB40BA8AB2EAA2FA984
:1004F00030E4120600AF34AE33AD32AC31900000C0
:1005000075F012E55C1206EFE55B75F012A4258329
:10051000F5831206B2AB2BAA2CA92D90000B120565
:10052000D3FF90001175F012E55C1206EFE55B75E4
:10053000F012A42583F583EFF090000B1205D33061
:10054000E427855B38855C39AE5BAF5C7C007D124F
:1005500012061274042FF974003E753A01F53B89B6
:100560003C7BFF7A0879BA8025855B38855C39AE9B
:100570005BAF5C7C007D1212061274042FF97400CC
:100580003E753A01F53B893C7BFF7A0879C8120039
:1005900065055CE55C7002055B0203F47BFF7A088D
:1005A00079D6120065120E4A8F2A1211788008E55A
:1005B0002AB44203752A14AF2A22BB010689828A13
:1005C00083E0225002E722BBFE02E32289828A8373
:1005D000E49322BB010CE58229F582E5833AF58399
:1005E000E0225006E92582F8E622BBFE06E92582D4
:1005F000F8E222E58229F582E5833AF583E4932245
:10060000BB010689828A83F0225002F722BBFE01D9
:10061000F322EF8DF0A4A8F0CF8CF0A428CE8DF0BB
:10062000A42EFE22BB010789828A830206FB500B9F
:1006300009C5F027F7C5F01937F722BBFE0D09F8F9
:10064000E325F0F3C5F019E338F322F889828A83B1
:1006500074019325F0C5F0F8E4933822BB010A89B0
:10066000828A83F0E5F0A3F0225006F709A7F0197B
:1006700022BBFE06F3E5F009F31922EB9FF5F0EA41
:100680009E42F0E99D42F0E89C45F022E8600FECC4
:10069000C313FCED13FDEE13FEEF13FFD8F122E8B8
:1006A000600FEFC333FFEE33FEED33FDEC33FCD8C8
:1006B000F122ECF0A3EDF0A3EEF0A3EFF022A8827C
:1006C0008583F0D083D0821206D51206D51206D5C6
:1006D0001206D5E473E493A3C583C5F0C583C8C5EA
:1006E00082C8F0A3C583C5F0C583C8C582C822A44B
:1006F0002582F582E5F03583F58322C5F0F8A3E085
:1007000028F0C5F0F8E582158270021583E038F014
:1007100022FAE6FB0808E6F925F0F618E6CA3AF6EA
:1007200022D083D082F8E4937012740193700DA3E9
:10073000A393F8740193F5828883E4737402936839
:1007400060EFA3A3A380DF900004742FF0E4A3F074
:100750009000001206BE000000009000117410F01E
:10076000E4F525F526F55B755C01C3E526955CE5AA
:1007700025955B503190001175F012E5261206EFB9
:10078000E52575F012A42583F583E030E40EAF264D
:1007900012035F8F24E52464146001220526E526F8
:1007A00070C8052580C47BFF7A0879EF855B3885A2
:1007B0005C39120065E4F525F526C3E526955CE570
:1007C00025955B400302087B90001175F012E52629
:1007D0001206EFE52575F012A42583F583E030E4D9
:1007E0000302086DAE25AF267C007D12120612743E
:1007F000042FF974003E753801F539893A7BFF7A88
:1008000009791612006590000075F012E5261206AF
:10081000EFE52575F012A42583120E01AE25AF2653
:100820007C007D1212061274042FF974003EFA7BCC
:1008300001120F688F24E52464147031F52E752F92
:1008400000753027FB7A00795D7D40FC120C6F8FBC
:1008500024E52864404527600F7BFF7A09792585C8
:100860002738852839120065E4FF1211670526E54F
:100870002660030207BA05250207BA224572726F85
:10088000723A20253032580A004C6973742044694A
:10089000726563746F72793A2025730A002A0054D6
:1008A0006869732069732061202E48206F72202EA2
:1008B0004558452066696C650A00446972202534F4
:1008C00064233A2025730A0046696C652534642345
:1008D0003A2025730A0046696C654E616D652053A8
:1008E00074727563747572652046756C6C0A005479
:1008F0006F74616C2066696C6526646972203D20A6
:1009000025642C204F70656E2065766572792066AF
:10091000696C653A0A004F70656E2066696C653ACD
:100920002025730A0046696C652073697A65203D4D
:100930002025640A0053746172740A005761697457
:1009400020556469736B2F53440A005265616479C2
:10095000203F0A0044657669636520676F6E650A0B
:1009600000556E6B6E6F776E206465766963650AFD
:1009700000556469736B496E666F3A2025730A00EF
:100980004C69737420616C6C2066696C65200A0088
:1009900054616B65206F75740A007F641210B71282
:1009A00010CA7BFF7A097935120065120F048F2374
:1009B0001210317BFF7A09793C12006512110AEF9F
:1009C000641460077F641210B780F17FC81210B7FB
:1009D000E4F5227F321210B77BFF7A09794B1200BF
:1009E000651211998F23E5236414601EE523648248
:1009F0006018121193EFC394034006E5229405504A
:100A0000090522E522C3946440C9E523B4820B7B27
:100A1000FF7A0979541200658099121193EFC394FB
:100A200003500B7BFF7A097961120065803C7B00E3
:100A30007A00795D120FED8F22E522B42416245D31
:100A4000F8E4F6F538753900753A657BFF7A09796F
:100A5000711200657F141210B77BFF7A097980123A
:100A600000651207478F231210317BFF7A097990B6
:100A700012006512110ABF14077F641210B780F3C9
:100A80007FC81210B70209B38B388A39893A7F01BF
:100A90001210DB121158EFC394434003020B337F53
:100AA0002B121127EFC394104003020B337F2F1238
:100AB00010DBE4FF1211047F3212117F8F3BE53B04
:100AC0006414706F7FCF1211278F3BE53B60647F0A
:100AD0004C121133C8ECC8C9EDC9CAEECACBEFCB72
:100AE000E53BFEE4FCFD2BF540EA3EF53FED39F534
:100AF0003EEC38F53D7F4C120E177F50121133C873
:100B0000ECC8C9EDC9CAEECACBEFCBE53BFEE4FCAD
:100B1000FD2BF540EA3EF53FED39F53EEC38F53D6D
:100B20007F50120E17E4F540F53FF53EF53D7F701E
:100B3000120E177F2F1210DBAB38AA39A93A120513
:100B4000BAFEFF8023EE60257401253AF53AE435BC
:100B500039F539AB38FAA93A1205BAFE645C60037C
:100B6000BE2F02E4FECFEECF12110480D8228B10EC
:100B70008A1189128B138A148915AB13AA14A9152B
:100B80001205BA600D74012515F515E43514F51438
:100B900080E8AB13AA14A9151205BAFF645C60289B
:100BA000EF642F6023E5108511838512826B700836
:100BB000E965827003EA6583600E74FF2515F515FB
:100BC00074FF3514F51480CAE510851183851282EF
:100BD0006513700AE51565827004E5146583600B82
:100BE00074012515F515E43514F514C3E5159512B2
:100BF000FF22121158CDEFCD121158CEEFCE1211A7
:100C0000588F3C1211588F3DCFEECFEFFEEDFFE431
:100C1000FCFDECC0E0EDC0E0EEC0E0EFC0E0AF3CBA
:100C2000E4FE781012069FD0E0FBD0E0FAD0E0F9A5
:100C3000D0E0F8EF4BFFEE4AFEED49FDEC48FCEC4E
:100C4000C0E0EDC0E0EEC0E0EFC0E0AF3DE4FCFD91
:100C5000FE781812069FD0E0FBD0E0FAD0E0F9D081
:100C6000E0F8EF4BFFEE4AFEED49FDEC48FC228B2D
:100C7000298A2A892B7F3A1210DBCFEDCF1211047B
:100C8000CFECCF121104E52F4530452E600CAB2E72
:100C9000AA2FA930E4F5F012065C120E4ACEEFCE70
:100CA000EE641D7034AB29AA2AA92B120FEDCEEFEA
:100CB000CE7F3B1210DBEEFD7C00252BF52BEC35B7
:100CC0002AF52AE52F4530452E60CFAB2EAA2FA955
:100CD00030EC8DF012062480C1CFEECF228B088A33
:100CE00009890A7F3C1210DBCFEDCF121104CFEC43
:100CF000CF121104E50E450F450D600CAB0DAA0E89
:100D0000A90FE4F5F012065C120E4ACEEFCEEE64A7
:100D10001E7034AB08AA09A90A12100FCEEFCE7FBD
:100D20003D1210DBEEFD7C00250AF50AEC3509F5D5
:100D300009E50E450F450D60CFAB0DAA0EA90FECCE
:100D40008DF012062480C1CFEECF228B1B8A1C8926
:100D50001D8D1EE4FF751F01AB1BAA1CA91D851F5D
:100D6000827583001205D3FE645C600CEE642F6014
:100D700007EE6004051F80E0EE6004051F8003E4B9
:100D8000F51FAB1B7E00E51D2FF9EE351CFA120F87
:100D900068E51F601A651E6016EF6441600DBF14A0
:100DA000037F4322BF42037FB32222AF1F80A922C9
:100DB0008B588A59895AEA494B60407F01AB58AA3F
:100DC00059A95A8F827583001205D3FE645C600BAB
:100DD000EE642F6006EE60030F80E2EE6014AB5805
:100DE000AA59A95A12119FEF6414600FEF64416071
:100DF0000A22AB58AA59A95A120A887F3512117FC4
:100E000022F583E0FCA3E0FDA3E0FEA3E0F5408E25
:100E10003F8D3E8C3D7F60CEEFCE7F0D1210FEAF3A
:100E200040121104E53FFF121104AF40AE3FAD3E4A
:100E3000AC3D781012068C121104AF40AE3FAD3EAF
:100E4000AC3D781812068C021104E4F53FF53EF52E
:100E50003DF53C7F407E4B7D4C7C00AB3FAA3EA9DC
:100E60003DA83CC312067B502012114BEF600302D9
:100E7000115EE53F2401F53FE4353EF53EE4353DA6
:100E8000F53DE4353CF53C80CA7FFA228B498A4A1D
:100E9000894B120B6E8F4CE54C601CAB49AA4AA9DA
:100EA0004BFD120D4BEF6441600DBF14037F4322D5
:100EB000BF42037FB32222AB497E00E54B254CF9AC
:100EC000EE354AFA121119228F508E4F8D4E8C4DED
:100ED0007F391210DBAF50121104E54FFF121104DD
:100EE000AF50AE4FAD4EAC4D781012068C121104BF
:100EF000AF50AE4FAD4EAC4D781812068C121104A7
:100F0000120E4A221211AB7F061210DB7F651211FE
:100F100004121158EF649A60037FFA227F151210B1
:100F2000DB7F061211047F141210F3121158BF5107
:100F3000037F14227FFA228F548E538D528C517F5F
:100F40004A1210DBAF54121104E553FF121104AF23
:100F500054AE53AD52AC51781012068C121104E409
:100F6000FF121104120E4A228B358A368937120A73
:100F700088AB35AA36A9371205BAFF645C6004EF66
:100F8000B42F0EE4F540F53FF53EF53D7F64120EBB
:100F9000177F3212117F228B558A568957120A8881
:100FA000AB55AA56A9571205BAFF645C6004EFB4AA
:100FB0002F0EE4F540F53FF53EF53D7F64120E1728
:100FC0007F4012117F22EFB40A07740D120FD17403
:100FD0000A309811A899B8130CC2983098FDA899B6
:100FE000C298B811F63099FDC299F599227F27125F
:100FF0001155CEEFCECDEECDEE6010121158EF129E
:101000000600740129F9E43AFADEF0CFEDCF227F31
:101010002D121155CEEFCECDEECDEE60101205BAE9
:10102000FF121104740129F9E43AFADEF0CFEDCF92
:1010300022EF6414601A7BFF7A08797C7538008F80
:10104000391200657FC81210B77FC81210B780F43C
:10105000227F2E1210FBAF1A121104E51A60111232
:1010600005BAFF121104740129F9E43AFAD51AEF0E
:10107000227F2C1210FBEE60101205BAFF12110431
:10108000740129F9E43AFADEF022CEEDCECDEFCDAF
:101090007F0B1210DBCFEDCF121104CFEECF021178
:1010A000047F051210B77F5A12117FCCEFCC7F0559
:1010B0001210B7CFECCF22CDEFCDCFEDCF1DEF602B
:1010C000081210EC1210EC80F12275985075878090
:1010D000758921758DF3D28ED2992290BDF1EFF0F2
:1010E0007F0A90BDF1E030E402DFF7227FFA1210B0
:1010F000F37FFACEEFCE1FEE70F922CEEDCE1210B6
:10110000DBCFEECF90BCF0EFF02212114BEF60037B
:1011100012115E7F3012117F22EA494B6003120ADE
:10112000887F3412117F22CEEFCE7F0A1210FE127A
:10113000115822CEEFCE7F0C1210FE120BF2227845
:101140007FE4F6D8FD75819C02099A30B2047F00D5
:1011500080027F01221210DB90BCF0E0FF227F2290
:101160001210DB12115822CDEFCD7F3612118622DC
:101170007DFF7F3712118622E4FD7F0D02108A1257
:1011800010DB120E4A221210FB120E4A227F681246
:101190001133227F2B121127227F3112117F227DE2
:0C11A000FF120D4B227F3812117F22221B
:00000001FF
