:100000000212D0E54C2440F8E6054C22783D30073A
:10001000027840E475F00112062102035F2000EB34
:100020007F2ED2008018EF540F2490D43440D4FF98
:1000300030040BEF24BFB41A0050032461FFE54DD8
:100040006002154D0550E5507002054F30070D78E0
:100050003DE475F001120621EF0203A50210F974C8
:1000600003D2078003E4C207F54C8B3D8A3E893FEB
:10007000E4F54DF54FF550E54D60077F2012003E49
:1000800080F5754EFFC201C200C202C203C205C2A2
:1000900006C20812000CFF700D3007057F00120029
:1000A0004FAF50AE4F22B4255FC2D5C20412000C30
:1000B000FF24D0B40A00501A75F00A784D30D505E7
:1000C00008B6FF0106C6A426F620D5047002D203A6
:1000D00080D924CFB41A00EF5004C2E5D204020242
:1000E0004FD20180C6D20080C0D20280BCD2D5805F
:1000F000BAD20580B47F2012003E2002077401B5F9
:100100004D0040F1120003FF12003E020077D208BA
:10011000D2068095120003FB120003FA120003F9C5
:100120004A4B700679207A037BFF20022EE54D6052
:100130002A7E008E8275830012037860060EEE65BB
:100140004E70F0C2D5EBC0E0EAC0E0E9C0E0EE12CC
:100150000296D0E0F9D0E0FAD0E0FB12035FFF6036
:10016000AAEBC0E0EAC0E0E9C0E012003ED0E02423
:1001700001F9D0E03400FAD0E0FBE54E0460DCD5B4
:100180004ED980877BFF7A027992D202809C7910C7
:1001900080027908C206C2088008D2D5790A800494
:1001A000790AC2D5E54E047002F54EE4FAFDFEFF71
:1001B000120003FC7B08200113120003FD7B1030AA
:1001C000000A120003FE120003FF7B20EC3382D5ED
:1001D00092D55013C3E43000069FFFE49EFEE42056
:1001E00001039DFDE49CFCE4CBF8C201EC700CCF54
:1001F000CECDCCE824F8F870F38017C3EF33FFEED0
:1002000033FEED33FDEC33FCEB33FB994002FB0F87
:10021000D8E9EB300105F8D0E0C448B201C0E00AEB
:10022000EC4D4E4F78207B0070C2EAB54E0040BCCA
:10023000C0E0120298D0F0D0E0200104C4C0E0C4B5
:10024000B201C0F0120027D0F0D5F0EB0200771217
:100250000631011453018E5800E54C00E142019231
:100260004F019A44019A4900FA4301A0550184467E
:1002700001844501844703405000E92D00ED2E0123
:10028000102B00F123010E2003292A00A9480000A9
:1002900001083F3F3F00790AA2D520031430050929
:1002A000B910020404B9080104A2D52006025001C5
:1002B000042002689202B54D005034C0E07F203027
:1002C00003197F30A20272067205500F1202EFC2AC
:1002D00002C206C205C2087F30800F300503E9C0A4
:1002E000E012003E300503D0E0F9D0E0B54DCC304F
:1002F00005177F30B9100C12003E7F583004077F7D
:10030000788003B9080312003E3002057F2D0200F9
:100310003E7F202008F87F2B2006F322920280CF18
:10032000286E756C6C2900D2011200033001F8C2EE
:1003300001784D30D50108F60200A92D50434958E7
:100340001200032403B405004001E490033B931220
:10035000002F743A12002FD203754D0402018EBB98
:10036000010689828A83E0225002E722BBFE02E373
:100370002289828A83E49322BB010CE58229F582DB
:10038000E5833AF583E0225006E92582F8E622BBB0
:10039000FE06E92582F8E222E58229F582E5833A24
:1003A000F583E49322BB010689828A83F0225002FE
:1003B000F722BBFE01F322F8BB010DE58229F5828D
:1003C000E5833AF583E8F0225006E92582C8F62253
:1003D000BBFE05E92582C8F222BB010789828A8318
:1003E000020584500B09C5F027F7C5F01937F7222D
:1003F000BBFE0D09F8E325F0F3C5F019E338F3224D
:10040000F889828A8374019325F0C5F0F8E4933863
:1004100022BB010A89828A83F0E5F0A3F02250060C
:10042000F709A7F01922BBFE06F3E5F009F319223C
:10043000EB9FF5F0EA9E42F0E99D42F0E89C45F022
:1004400022E8600FECC313FCED13FDEE13FEEF1377
:10045000FFD8F122E8600FEFC333FFEE33FEED3338
:10046000FDEC33FCD8F122BB010789828A830205A7
:10047000A65005E9F802059ABBFE05E9F80205B2A7
:1004800022BB010789828A830205D75005E9F80259
:1004900005BEBBFE05E9F802060822E709F608706A
:1004A000FA8046E709F20870FA803E88828C83E77A
:1004B00009F0A370FA807EE309F60870FA8076E30B
:1004C00009F20870FA806E88828C83E309F0A370C9
:1004D000FA806289828A83E0A3F60870FA805689DE
:1004E000828A83E0A3F20870FA804A80D280FA8080
:1004F000C680D4806580F28031801080A680EA803A
:100500009A80A880DA80E280CA803189828A83EC6E
:10051000FAE493A3C8C582C8CCC583CCF0A3C8C5F0
:1005200082C8CCC583CC70E9800D89828A83E4932C
:10053000A3F60870F9ECFAA9F0EDFB2289828A8310
:10054000ECFAE0A3C8C582C8CCC583CCF0A3C8C56B
:1005500082C8CCC583CC70EA80DD89828A83E4932B
:10056000A3F20870F980CE88F0ED2402B4040050A4
:10057000C4F582EB2402B4040050BA23234582233D
:100580009004EB73C5F0F8A3E028F0C5F0F8E5821D
:10059000158270021583E038F022ECF608EDF608BB
:1005A000EEF608EFF622ECF0A3EDF0A3EEF0A3EFE9
:1005B000F022ECF208EDF208EEF208EFF222D0831E
:1005C000D082E493F608740193F608740293F60857
:1005D000740393F6740473A8828583F0D083D08269
:1005E0001205EE1205EE1205EE1205EEE473E49329
:1005F000A3C583C5F0C583C8C582C8F0A3C583C59C
:10060000F0C583C8C582C822D083D082E493F208A3
:10061000740193F208740293F208740393F2740461
:1006200073FAE6FB0808E6F925F0F618E6CA3AF68A
:1006300022D083D082F8E4937012740193700DA3DA
:10064000A393F8740193F5828883E473740293682A
:1006500060EFA3A3A380DF7F6412124812125B7BBA
:10066000FF7A0B79141200651210368F2312118D48
:100670007BFF7A0B791B12006512129BEF641460EA
:10068000077F6412124880F17FC8121248E4F522F5
:100690007F321212487BFF7A0B792A1200651213FF
:1006A0002C8F23E5236414601EE5236482601812F6
:1006B0001326EFC394034006E52294055009052252
:1006C000E522C3946440C9E523B4820B7BFF7A0B17
:1006D00079331200658099121326EFC39403500CEE
:1006E0007BFF7A0B79401200650208707B007A006C
:1006F00079541211AD8F22E522B424162454F8E463
:10070000F6F54075410075425C7BFF7A0B7950121B
:10071000006578007C007D017BFF7A0B795F120514
:100720006778407C007D017BFF7A0B796F1205674B
:100730007BFF7A0B797C1200657B017A00790012CD
:1007400013328F23E52364B36009E5236442600319
:10075000020854E52378547C007D007BFFB4B30687
:100760007A0B798280047A0B7985120567754000CF
:100770007541007542547BFF7A0B79911200657BBD
:10078000007A0079541213328F23E523641D7054CC
:10079000FB7A0079541211AD7A0079548B248A25A2
:1007A000892612035FFF642E602EEFB4050BAB2485
:1007B000AA25A92674E51203A5AB24AA25A926908B
:1007C000000BE41203B78524408525418526427B32
:1007D000FF7A0B799F1200657F3312126C120F7A29
:1007E0008F2380A6E52364426005AF2312118D7B21
:1007F000FF7A0B79B11200657B017A007940120F04
:10080000FA8F2312118D7BFF7A0A79E7120065783F
:10081000547C007D007BFF7A0B79B91205677B0061
:100820007A007954121233CCEECCCDEFCD75420064
:100830007543007544007B007A007954120E148FC2
:100840002312118D7BFF7A0B79D51200657F01127F
:1008500012FA8017AF2312118D752A01752B0075BE
:100860002C407B017A00790012088E8F2312118DA3
:100870007BFF7A0B79DC12006512129BBF14077F95
:100880006412124880F37FC81212480206708B2748
:100890008A288929E4F537F536F535F5347BFF7A72
:1008A0000A79B5120065AB27AA28A9291213328F3D
:1008B0002DE52D6414600122E4FFFEFDFCAB37AA98
:1008C00036A935A834C3120430701E1213208F339A
:1008D0008E328D318C307BFF7A0A79BE8F438E4207
:1008E0008D418C40120065800C120F368F2DE52D46
:1008F00064146001227BFF7A0A79CD12006575428B
:100900000075430075442E7B007A0079547D407C4D
:1009100000120DA68F2DE52D6414600122E4FFFE68
:10092000C3EF952FEE952E501F74542FF8E6F52D3A
:10093000C39461400CE52DD3947A5005E52D24E055
:10094000F60FBF00010E80D8E4FFFEFDFCAB37AA16
:1009500036A935A834C3120430706E7BFF7A0A7949
:10096000D3120065AB2AAA2BA92C120CA58F38E54F
:10097000386034AB2AAA2BA92CFD120E828F2DE5EC
:100980002D64416013E52DB414037F4322E52DB49B
:1009900042037FB322AF2D227F601212C48F3C8EA0
:1009A0003B8D3A8C398009E4F53CF53BF53AF53955
:1009B000AB2A7E00E52C2538F9EE352BFA1212AA67
:1009C0008F2DE52D64146040227BFF7A0A79DE12B8
:1009D0000065853C49853B48853A478539467F60B7
:1009E000120FC7AB2A7E00E52C2538F9EE352BFA1D
:1009F0001211458F2DE52D6414600122120F368FE0
:100A00002DE52D64146001227BFF7A0A79E712003C
:100A1000657542007543007544007B007A00795487
:100A2000AD2FAC2E120E148F2DE52D641460012213
:100A30007BFF7A0A79EE1200657F011212FA8F2D80
:100A4000E52D6414600122E4FCFDE537252FF53720
:100A5000E536352EF536ED3535F535EC3534F534EE
:100A6000C3E52F9440E52E94005021AF33AE32AD54
:100A700031AC30AB37AA36A935A834C31204306084
:100A8000247BFF7A0A79F81200658019AF33AE3201
:100A9000AD31AC30AB37AA36A935A834C312043017
:100AA000500302089D7F14224572726F723A20250E
:100AB0003032580A004F70656E5372630A005372E9
:100AC0006346696C65537A3D256C640A0052656122
:100AD000640A004372656174655461720A004F7064
:100AE000656E5461720A0057726974650A00436C3E
:100AF0006F73655461720A004572726F72206F6E77
:100B000020536F7572636546696C65207265616418
:100B1000696E670053746172740A005761697420CA
:100B2000556469736B2F53440A00526561647920E0
:100B30003F0A0044657669636520676F6E650A0049
:100B4000556E6B6E6F776E206465766963650A001B
:100B5000556469736B496E666F3A2025730A005CB1
:100B60004335315C43483337364846542E43005CA6
:100B70004E455746494C452E545854004F70656EAB
:100B80000A005C2A005C4335315C43483337362A1F
:100B9000004C6973742066696C652025730A002A0D
:100BA0002A2A20456E756D4E616D653A2025730ABF
:100BB000004372656174650A00D5D2B2BBB5BD2F22
:100BC0004335312F43483337364846542E43CEC43D
:100BD000BCFE0D0A00436C6F73650A0054616B65BF
:100BE000206F75740A008B088A09890A7F3F1213E7
:100BF000128F0BE50B64146003020C951212DC12C9
:100C000012E11212E11212E11212E11212E1CDEF21
:100C1000CD1212E1CEEFCE1212E18F0C1212E18F43
:100C20000DCFEECFEFFEEDFFE4FCFDECC0E0EDC03C
:100C3000E0EEC0E0EFC0E0AF0CE4FE781012045428
:100C4000D0E0FBD0E0FAD0E0F9D0E0F8EF4BFFEED7
:100C50004AFEED49FDEC48FCECC0E0EDC0E0EEC022
:100C6000E0EFC0E0AF0DE4FCFDFE7818120454D0B4
:100C7000E0FBD0E0FAD0E0F9D0E0F8EF4BFFEE4A2D
:100C8000FEED49FDEC48FCAB08AA09A90A1204676D
:100C90001212E1800DAB08AA09A90A120481000012
:100CA0000000AF0B228B3D8A3E893F8B408A4189F1
:100CB00042AB40AA41A94212035F600D7401254274
:100CC000F542E43541F54180E8AB40AA41A9421222
:100CD000035FFF645C6028EF642F6023E53D853E81
:100CE00083853F826B7008E965827003EA658360E3
:100CF0000E74FF2542F54274FF3541F54180CAE587
:100D00003D853E83853F826540700AE5426582707D
:100D100004E5416583600B74012542F542E43541E9
:100D2000F541C3E542953FFF221212E1CDEFCD120E
:100D300012E1CEEFCE1212E18F3D1212E18F3ECFC3
:100D4000EECFEFFEEDFFE4FCFDECC0E0EDC0E0EE29
:100D5000C0E0EFC0E0AF3DE4FE7810120454D0E0F4
:100D6000FBD0E0FAD0E0F9D0E0F8EF4BFFEE4AFE1E
:100D7000ED49FDEC48FCECC0E0EDC0E0EEC0E0EF7A
:100D8000C0E0AF3EE4FCFDFE7818120454D0E0FB56
:100D9000D0E0FAD0E0F9D0E0F8EF4BFFEE4AFEEDFC
:100DA00049FDEC48FC228B3D8A3E893F7F3A121276
:100DB0006CCFEDCF121295CFECCF121295E54345D3
:100DC000444542600CAB42AA43A944E4F5F0120446
:100DD00011120F7ACEEFCEEE641D7034AB3DAA3EF9
:100DE000A93F1211ADCEEFCE7F3B12126CEEFD7C0F
:100DF00000253FF53FEC353EF53EE5434544454291
:100E000060CFAB42AA43A944EC8DF01203D980C154
:100E1000CFEECF228B3D8A3E893F7F3C12126CCFB2
:100E2000EDCF121295CFECCF121295E54345444514
:100E300042600CAB42AA43A944E4F5F0120411123B
:100E40000F7ACEEFCEEE641E7034AB3DAA3EA93FC2
:100E5000121120CEEFCE7F3D12126CEEFD7C0025EC
:100E60003FF53FEC353EF53EE5434544454260CF16
:100E7000AB42AA43A944EC8DF01203D980C1CFEE56
:100E8000CF228B3D8A3E893F8D40E4FF754101AB07
:100E90003DAA3EA93F854182758300120378FE6416
:100EA0005C600CEE642F6007EE6004054180E0EEAC
:100EB000600405418003E4F541AB3D7E00E53F2F32
:100EC000F9EE353EFA121145E541601A65406016AB
:100ED000EF6441600DBF14037F4322BF42037FB321
:100EE0002222AF4180A9228B518A528953EA494B71
:100EF000603E7F01AB51AA52A9538F8275830012C5
:100F00000378FE645C600BEE642F6006EE60030FF6
:100F100080E2EE6012AB51AA52A953121332BF14F1
:100F200005EF6441600A22AB51AA52A9531210CDB9
:100F30007F3512131222AF37AE36AD35AC348F4049
:100F40008E3F8D3E8C3D7F3912126CAF4012129550
:100F5000E53FFF121295AF40AE3FAD3EAC3D78107D
:100F6000120441121295AF40AE3FAD3EAC3D781831
:100F7000120441121295120F7A22E4F548F547F552
:100F800046F5457F407E4B7D4C7C00AB48AA47A987
:100F900046A845C312043050201212E7EF60030246
:100FA00012F1E5482401F548E43547F547E43546B4
:100FB000F546E43545F54580CA7FFA22E4F549F562
:100FC00048F547F5467F64CEEFCE7F0D12128FAF06
:100FD00049121295E548FF121295AF49AE48AD4748
:100FE000AC467810120441121295AF49AE48AD4795
:100FF000AC4678181204410212958B278A28892959
:10100000120CA58F2AE52A601CAB27AA28A929FD66
:10101000120E82EF6441600DBF14037F4322BF4272
:10102000037FB32222AB277E00E529252AF9EE357E
:1010300028FA1212AA2212133E7F0612126C7F6542
:101040001212951212E1EF649A60037FFA227F1563
:1010500012126C7F061212957F141212841212E182
:10106000BF51037F14227FFA228B138A1489157FC4
:101070003E1213128F16E516B414111212DC120D63
:1010800029AB13AA14A915120467800DAB13AA1477
:10109000A91512048100000000AF16228F1A8E19C4
:1010A0008D188C177F4A12126CAF1A121295E5191F
:1010B000FF121295AF1AAE19AD18AC1778101204C2
:1010C00041121295E4FF121295120F7A227F2F120D
:1010D000126C12035FFEFF801AEE601C740129F986
:1010E000E43AFA12035FFE645C6003BE2F02E4FE82
:1010F000CFEECF12129580E122EFB40A07740D12E1
:101100001104740A309811A899B8130CC298309839
:10111000FDA899C298B811F63099FDC299F59922A7
:101120007F2D12126C1212E1CEEFCECDEECDEE601D
:101130001012035FFF121295740129F9E43AFADEE6
:10114000F0CFEDCF228B428A4389441210CDAB42BF
:10115000AA43A94412035FFF645C6004EFB42F0349
:10116000120FBC7F32121312228B1B8A1C891D1294
:1011700010CDAB1BAA1CA91D12035FFF645C6004A9
:10118000EFB42F03120FBC7F4012131222EF64142E
:10119000601A7BFF7A0A79A87540008F41120065BA
:1011A0007FC81212487FC812124880F4221212DC43
:1011B000CEEFCECDEECDEE60101212E1EF1203A510
:1011C000740129F9E43AFADEF0CFEDCF227F2E1236
:1011D000128CAF12121295E512601112035FFF120A
:1011E0001295740129F9E43AFAD512EF227F2C12F4
:1011F000128CEE601012035FFF121295740129F930
:10120000E43AFADEF022CEEDCECDEFCD7F0B121216
:101210006CCFEDCF121295CFEECF0212957F051253
:1012200012487F5A121312CCEFCC7F05121248CF0E
:10123000ECCF22E4FFFE12035F600C0FEF70010E93
:1012400009E970F20A80EF22CDEFCDCFEDCF1DEF8F
:10125000600812127D12127D80F1227598507587F8
:1012600080758921758DF3D28ED2992290BDF1EFD0
:10127000F07F0A90BDF1E030E402DFF7227FFA123E
:1012800012847FFACEEFCE1FEE70F922CEEDCE1291
:10129000126CCFEECF90BCF0EFF0221212E7EF60AD
:1012A000031212F17F3012131222EA494B6003122B
:1012B00010CD7F3412131222CEEFCE7F0A12128F7E
:1012C0001212E122CEEFCE7F0C12128F120D2922C4
:1012D000787FE4F6D8FD7581930206577F271212B6
:1012E0006C90BCF0E0FF2230B2047F0080027F01EE
:1012F000227F2212126C1212E122CDEFCD7F361224
:101300001319227DFF7F3712131922E4FD7F0D028E
:10131000120612126C120F7A2212128C120F7A22FB
:101320007F681212C4227F2B1212B8227F3112134F
:0F13300012227DFF120E82227F38121312222208
:00000001FF
