:10000000020F41E518240CF8E6051822780930079C
:1000100002780CE475F00112054402035F2000EB46
:100020007F2ED2008018EF540F2490D43440D4FF98
:1000300030040BEF24BFB41A0050032461FFE5190C
:1000400060021519051CE51C7002051B30070D78B0
:1000500009E475F001120544EF0203A5020D6B746B
:1000600003D2078003E4C207F5188B098A0A890BBB
:10007000E4F519F51BF51CE51960077F2012003E19
:1000800080F5751AFFC201C200C202C203C205C2D6
:1000900006C20812000CFF700D3007057F00120029
:1000A0004FAF1CAE1B22B4255FC2D5C20412000C98
:1000B000FF24D0B40A00501A75F00A781930D5051B
:1000C00008B6FF0106C6A426F620D5047002D203A6
:1000D00080D924CFB41A00EF5004C2E5D204020242
:1000E0004FD20180C6D20080C0D20280BCD2D5805F
:1000F000BAD20580B47F2012003E2002077401B5F9
:10010000190040F1120003FF12003E020077D208EE
:10011000D2068095120003FB120003FA120003F9C5
:100120004A4B700679207A037BFF20022EE5196086
:100130002A7E008E8275830012037860060EEE65BB
:100140001A70F0C2D5EBC0E0EAC0E0E9C0E0EE1200
:100150000296D0E0F9D0E0FAD0E0FB12035FFF6036
:10016000AAEBC0E0EAC0E0E9C0E012003ED0E02423
:1001700001F9D0E03400FAD0E0FBE51A0460DCD5E8
:100180001AD980877BFF7A027992D202809C7910FB
:1001900080027908C206C2088008D2D5790A800494
:1001A000790AC2D5E51A047002F51AE4FAFDFEFFD9
:1001B000120003FC7B08200113120003FD7B1030AA
:1001C000000A120003FE120003FF7B20EC3382D5ED
:1001D00092D55013C3E43000069FFFE49EFEE42056
:1001E00001039DFDE49CFCE4CBF8C201EC700CCF54
:1001F000CECDCCE824F8F870F38017C3EF33FFEED0
:1002000033FEED33FDEC33FCEB33FB994002FB0F87
:10021000D8E9EB300105F8D0E0C448B201C0E00AEB
:10022000EC4D4E4F78207B0070C2EAB51A0040BCFE
:10023000C0E0120298D0F0D0E0200104C4C0E0C4B5
:10024000B201C0F0120027D0F0D5F0EB0200771217
:100250000554011453018E5800E54C00E14201920F
:100260004F019A44019A4900FA4301A0550184467E
:1002700001844501844703405000E92D00ED2E0123
:10028000102B00F123010E2003292A00A9480000A9
:1002900001083F3F3F00790AA2D520031430050929
:1002A000B910020404B9080104A2D52006025001C5
:1002B000042002689202B519005034C0E07F20305B
:1002C00003197F30A20272067205500F1202EFC2AC
:1002D00002C206C205C2087F30800F300503E9C0A4
:1002E000E012003E300503D0E0F9D0E0B519CC3083
:1002F00005177F30B9100C12003E7F583004077F7D
:10030000788003B9080312003E3002057F2D0200F9
:100310003E7F202008F87F2B2006F322920280CF18
:10032000286E756C6C2900D2011200033001F8C2EE
:1003300001781930D50108F60200A92D504349581B
:100340001200032403B405004001E490033B931220
:10035000002F743A12002FD20375190402018EBBCC
:10036000010689828A83E0225002E722BBFE02E373
:100370002289828A83E49322BB010CE58229F582DB
:10038000E5833AF583E0225006E92582F8E622BBB0
:10039000FE06E92582F8E222E58229F582E5833A24
:1003A000F583E49322BB010689828A83F0225002FE
:1003B000F722BBFE01F322BB010789828A83020573
:1003C0002E500B09C5F027F7C5F01937F722BBFEF1
:1003D0000D09F8E325F0F3C5F019E338F322F889A5
:1003E000828A8374019325F0C5F0F8E4933822BB28
:1003F000010A89828A83F0E5F0A3F0225006F7090A
:10040000A7F01922BBFE06F3E5F009F31922EB9FD2
:10041000F5F0EA9E42F0E99D42F0E89C45F022E8C2
:10042000600FECC313FCED13FDEE13FEEF13FFD8CA
:10043000F122E8600FEFC333FFEE33FEED33FDEC46
:1004400033FCD8F122E709F60870FA8046E709F292
:100450000870FA803E88828C83E709F0A370FA80E6
:100460007EE309F60870FA8076E309F20870FA80F4
:100470006E88828C83E309F0A370FA806289828A95
:1004800083E0A3F60870FA805689828A83E0A3F29B
:100490000870FA804A80D280FA80C680D480658055
:1004A000F28031801080A680EA809A80A880DA806D
:1004B000E280CA803189828A83ECFAE493A3C8C5BA
:1004C00082C8CCC583CCF0A3C8C582C8CCC583CCB8
:1004D00070E9800D89828A83E493A3F60870F9ECB1
:1004E000FAA9F0EDFB2289828A83ECFAE0A3C8C561
:1004F00082C8CCC583CCF0A3C8C582C8CCC583CC88
:1005000070EA80DD89828A83E493A3F20870F9801F
:10051000CE88F0ED2402B4040050C4F582EB24022E
:10052000B4040050BA232345822390049573C5F088
:10053000F8A3E028F0C5F0F8E58215827002158373
:10054000E038F022FAE6FB0808E6F925F0F618E6AE
:10055000CA3AF622D083D082F8E4937012740193E1
:10056000700DA3A393F8740193F5828883E47374E8
:1005700002936860EFA3A3A380DF4572726F723AA3
:1005800020253032580A0053746172740A00576192
:10059000697420556469736B2F53440A0052656176
:1005A0006479203F0A00437265617465204C65766A
:1005B000656C2031204469726563746F7279202FF5
:1005C0005945415232303038200A002F59454152A6
:1005D0003230303800466F756E6420612066696C79
:1005E0006520776974682073616D65206E616D6543
:1005F0000A00437265617465204C6576656C203233
:10060000204469726563746F7279202F5945415295
:10061000323030382F4D4F4E54483035200A002F9D
:1006200059454152323030382F4D4F4E54483035B5
:1006300000437265617465204E65772046696C657C
:10064000202F59454152323030382F4D4F4E5448AB
:1006500030352F44454D4F323030382E54585420C9
:100660000A0044454D4F323030382E54585400570C
:100670007269746520736F6D6520646174612074A4
:100680006F2066696C650A0054686973206973207D
:10069000D1DDCABECAFDBEDD0D0A00436C6F7365B5
:1006A0000A004F70656E2046696C65202F594541E0
:1006B00052323030382F4D4F4E544830352F44454C
:1006C0004D4F323030382E545854200A002F59459F
:1006D0004152323030382F4D4F4E544830352F4430
:1006E000454D4F323030382E5458540054616B65AC
:1006F000206F75740A007F64120EB9120ECC7BFF56
:100700007A057987120065120CDB8F08120E1E7BAA
:10071000FF7A05798E120065120F0CEF64146007E2
:100720007F64120EB980F17FC8120EB9E4F5087F1C
:1007300032120EB97BFF7A05799D120065120F9B6C
:10074000EF641460090508E508C3940A40E17BFFE3
:100750007A0579A61200657BFF7A0579CB120DB672
:100760008F08E508B443097BFF7A0579D512006547
:10077000AF08120E1EE4FF120F697BFF7A0579F2B3
:10078000120065783A7C007D007BFF7A06791F12A3
:1007900005117B007A00793A12086F8F08E508B4DA
:1007A00043097BFF7A0579D5120065AF08120E1E4A
:1007B0007BFF7A0679311200657BFF7A0679621237
:1007C0000F1B8F08120E1E7BFF7A06796F120065D1
:1007D000783A7C007D007BFF7A0679881205117BD0
:1007E000007A00793A120EA4CCEECCCDEFCD75167E
:1007F000007517007518007B007A00793A120A4DCF
:100800008F08120E1E7BFF7A06799B1200657F010E
:10081000120F698F08120E1E7BFF7A0679A2120052
:1008200065783A7C007D007BFF7A0679CD12051150
:100830007B007A00793A120FA18F08120E1E7BFFFF
:100840007A06799B120065E4FF120F698F08120E79
:100850001E7BFF7A0679EC120065120F0CBF14079D
:100860007F64120EB980F37FC8120EB902070F8B96
:10087000098A0A890B1209468F0CE50C6018AB092E
:10088000AA0AA90B12035FFF645C6004EFB42F0394
:10089000020DB67FB322AB09AA0AA90BAD0C120B4D
:1008A00029CEEFCEEE64416010BE14037F4322BE1A
:1008B00042037FB322CFEECF227F0C120EDD7F608A
:1008C000120F06E4FE120F5A740D2EF8C6EFC60E74
:1008D000BE04F2AB097E00E50B250CF9EE350AFAF1
:1008E000120DB6CEEFCEEE64146001227F34120CEE
:1008F0001FCEEFCEEE64146001227516007517004E
:100900007518007A00790F120A47CEEFCEEE641404
:100910006001227F3A120C1FCEEFCEEE641460010C
:10092000227516007517007518007A00790D120AE5
:1009300047CEEFCEEE64146001227F00120C1FCE72
:10094000EFCEEE6414228B118A1289138B148A1550
:100950008916AB14AA15A91612035F600D74012540
:1009600016F516E43515F51580E8AB14AA15A91689
:1009700012035FFF645C6028EF642F6023E511853C
:1009800012838513826B7008E965827003EA6583C0
:10099000600E74FF2516F51674FF3515F51580CA1F
:1009A000E5118512838513826514700AE516658248
:1009B0007004E5156583600B74012516F516E435A2
:1009C00015F515C3E5169513FF22120F5ACDEFCD7D
:1009D000120F5ACEEFCE120F5A8F1E120F5A8F1FC0
:1009E000CFEECFEFFEEDFFE4FCFDECC0E0EDC0E0AC
:1009F000EEC0E0EFC0E0AF1EE4FE7810120432D08B
:100A0000E0FBD0E0FAD0E0F9D0E0F8EF4BFFEE4A9F
:100A1000FEED49FDEC48FCECC0E0EDC0E0EEC0E0CE
:100A2000EFC0E0AF1FE4FCFDFE7818120432D0E006
:100A3000FBD0E0FAD0E0F9D0E0F8EF4BFFEE4AFE51
:100A4000ED49FDEC48FC227B007D027C008B118A85
:100A50001289137F3C120EDDCFEDCF120F06CFECC3
:100A6000CF120F06E51745184516600CAB16AA17EE
:100A7000A918E4F5F01203EF120BDDCEEFCEEE6411
:100A80001E7034AB11AA12A913120DFCCEEFCE7F4B
:100A90003D120EDDEEFD7C002513F513EC3512F54D
:100AA00012E5174518451660CFAB16AA17A918EC22
:100AB0008DF01203B780C1CFEECF228B228A23891B
:100AC000247F3A120EDDCFEDCF120F06CFECCF12FE
:100AD0000F06E52845294527600CAB27AA28A92938
:100AE000E4F5F01203EF120BDDCEEFCEEE641D70D5
:100AF00034AB22AA23A924120DDACEEFCE7F3B120B
:100B00000EDDEEFD7C002524F524EC3523F523E5F0
:100B1000284529452760CFAB27AA28A929EC8DF0C5
:100B20001203B780C1CFEECF228B118A1289138DA9
:100B300014E4FF751501AB11AA12A913851582756E
:100B40008300120378FE645C600CEE642F6007EE95
:100B50006004051580E0EE600405158003E4F515DA
:100B6000AB117E00E5132FF9EE3512FA120D92E566
:100B700015601A65146016EF6441600DBF14037FA1
:100B80004322BF42037FB32222AF1580A9228B37B5
:100B90008A388939EA494B603E7F01AB37AA38A9C8
:100BA000398F82758300120378FE645C600BEE64FB
:100BB0002F6006EE60030F80E2EE6012AB37AA38BA
:100BC000A939120FA1BF1405EF6441600A22AB37A7
:100BD000AA38A939120D3F7F35120F8122E4F51C86
:100BE000F51BF51AF5197F407E4B7D4C7C00AB1C44
:100BF000AA1BA91AA819C312040E5020120F4DEFF8
:100C00006003020F60E51C2401F51CE4351BF51B95
:100C1000E4351AF51AE43519F51980CA7FFA227EEF
:100C2000007D007C008F148E138D128C117F391281
:100C30000EDDAF14120F06E513FF120F06AF14AE50
:100C400013AD12AC11781012041F120F06AF14AEC0
:100C500013AD12AC11781812041F120F06120BDD1F
:100C600022E4F51DF51CF51BF51A7F64CEEFCE7F4F
:100C70000D120F00AF1D120F06E51CFF120F06AF7D
:100C80001DAE1CAD1BAC1A781012041F120F06AF5C
:100C90001DAE1CAD1BAC1A781812041F020F068B78
:100CA0002F8A3089311209468F32E532601CAB2F12
:100CB000AA30A931FD120B29EF6441600DBF140366
:100CC0007F4322BF42037FB32222AB2F7E00E53158
:100CD0002532F9EE3530FA120F1B22120FAD7F06C6
:100CE000120EDD7F65120F06120F5AEF649A600331
:100CF0007FFA227F15120EDD7F06120F067F141277
:100D00000EF5120F5ABF51037F14227FFA228F363D
:100D10008E358D348C337F4A120EDDAF36120F06BE
:100D2000E535FF120F06AF36AE35AD34AC33781073
:100D300012041F120F06E4FF120F06120BDD227FB2
:100D40002F120EDD12035FFEFF801AEE601C74018D
:100D500029F9E43AFA12035FFE645C6003BE2F02D5
:100D6000E4FECFEECF120F0680E122EFB40A077443
:100D70000D120D76740A309811A899B8130CC29808
:100D80003098FDA899C298B811F63099FDC299F52E
:100D900099228B168A178918120D3FAB16AA17A92C
:100DA0001812035FFF645C6004EFB42F03120C6140
:100DB0007F32120F81228B118A128913120D3FABE1
:100DC00011AA12A91312035FFF645C6004EFB42F31
:100DD00003120C617F40120F81227F27120F57CE22
:100DE000EFCECDEECDEE6010120F5AEF1203A574C8
:100DF0000129F9E43AFADEF0CFEDCF227F2D120F70
:100E000057CEEFCECDEECDEE601012035FFF120F86
:100E100006740129F9E43AFADEF0CFEDCF22EF644F
:100E200014601A7BFF7A05797A750C008F0D120019
:100E3000657FC8120EB97FC8120EB980F4227F2ECA
:100E4000120EFDAF2E120F06E52E601112035FFF8A
:100E5000120F06740129F9E43AFAD52EEF227F2CFD
:100E6000120EFDEE601012035FFF120F06740129CF
:100E7000F9E43AFADEF022CEEDCECDEFCD7F0B12C3
:100E80000EDDCFEDCF120F06CFEECF020F067F059E
:100E9000120EB97F5A120F81CCEFCC7F05120EB91A
:100EA000CFECCF22E4FFFE12035F600C0FEF700166
:100EB0000E09E970F20A80EF22CDEFCDCFEDCF1D04
:100EC000EF6008120EEE120EEE80F122759850754A
:100ED0008780758921758DF3D28ED2992290BDF1CC
:100EE000EFF07F0A90BDF1E030E402DFF7227FFAF5
:100EF000120EF57FFACEEFCE1FEE70F922CEEDCEB8
:100F0000120EDDCFEECF90BCF0EFF022120F4DEFBE
:100F10006003120F607F30120F8122EA494B600399
:100F2000120D3F7F34120F8122CEEFCE7F0A120FB7
:100F300000120F5A22CEEFCE7F0C120F001209CAF8
:100F400022787FE4F6D8FD7581790206F630B20486
:100F50007F0080027F0122120EDD90BCF0E0FF22B4
:100F60007F22120EDD120F5A22CDEFCD7F36120FE7
:100F700088227DFF7F37120F8822E4FD7F0D020E4D
:100F800077120EDD120BDD22120EFD120BDD227F19
:100F900068120F35227F2B120F29227F31120F8109
:0E0FA000227DFF120B29227F38120F812222A0
:00000001FF
