:10000000020E40E537242BF8E60537227828300722
:1000100002782BE475F00112054402035F2000EB27
:100020007F2ED2008018EF540F2490D43440D4FF98
:1000300030040BEF24BFB41A0050032461FFE538ED
:1000400060021538053BE53B7002053A30070D7834
:1000500028E475F001120544EF0203A5020C6A744E
:1000600003D2078003E4C207F5378B288A29892A3F
:10007000E4F538F53AF53BE53860077F2012003E9D
:1000800080F57539FFC201C200C202C203C205C2B7
:1000900006C20812000CFF700D3007057F00120029
:1000A0004FAF3BAE3A22B4255FC2D5C20412000C5A
:1000B000FF24D0B40A00501A75F00A783830D505FC
:1000C00008B6FF0106C6A426F620D5047002D203A6
:1000D00080D924CFB41A00EF5004C2E5D204020242
:1000E0004FD20180C6D20080C0D20280BCD2D5805F
:1000F000BAD20580B47F2012003E2002077401B5F9
:10010000380040F1120003FF12003E020077D208CF
:10011000D2068095120003FB120003FA120003F9C5
:100120004A4B700679207A037BFF20022EE5386067
:100130002A7E008E8275830012037860060EEE65BB
:100140003970F0C2D5EBC0E0EAC0E0E9C0E0EE12E1
:100150000296D0E0F9D0E0FAD0E0FB12035FFF6036
:10016000AAEBC0E0EAC0E0E9C0E012003ED0E02423
:1001700001F9D0E03400FAD0E0FBE5390460DCD5C9
:1001800039D980877BFF7A027992D202809C7910DC
:1001900080027908C206C2088008D2D5790A800494
:1001A000790AC2D5E539047002F539E4FAFDFEFF9B
:1001B000120003FC7B08200113120003FD7B1030AA
:1001C000000A120003FE120003FF7B20EC3382D5ED
:1001D00092D55013C3E43000069FFFE49EFEE42056
:1001E00001039DFDE49CFCE4CBF8C201EC700CCF54
:1001F000CECDCCE824F8F870F38017C3EF33FFEED0
:1002000033FEED33FDEC33FCEB33FB994002FB0F87
:10021000D8E9EB300105F8D0E0C448B201C0E00AEB
:10022000EC4D4E4F78207B0070C2EAB5390040BCDF
:10023000C0E0120298D0F0D0E0200104C4C0E0C4B5
:10024000B201C0F0120027D0F0D5F0EB0200771217
:100250000554011453018E5800E54C00E14201920F
:100260004F019A44019A4900FA4301A0550184467E
:1002700001844501844703405000E92D00ED2E0123
:10028000102B00F123010E2003292A00A9480000A9
:1002900001083F3F3F00790AA2D520031430050929
:1002A000B910020404B9080104A2D52006025001C5
:1002B000042002689202B538005034C0E07F20303C
:1002C00003197F30A20272067205500F1202EFC2AC
:1002D00002C206C205C2087F30800F300503E9C0A4
:1002E000E012003E300503D0E0F9D0E0B538CC3064
:1002F00005177F30B9100C12003E7F583004077F7D
:10030000788003B9080312003E3002057F2D0200F9
:100310003E7F202008F87F2B2006F322920280CF18
:10032000286E756C6C2900D2011200033001F8C2EE
:1003300001783830D50108F60200A92D50434958FC
:100340001200032403B405004001E490033B931220
:10035000002F743A12002FD20375380402018EBBAD
:10036000010689828A83E0225002E722BBFE02E373
:100370002289828A83E49322BB010CE58229F582DB
:10038000E5833AF583E0225006E92582F8E622BBB0
:10039000FE06E92582F8E222E58229F582E5833A24
:1003A000F583E49322BB010689828A83F0225002FE
:1003B000F722BBFE01F322BB010789828A83020573
:1003C0002E500B09C5F027F7C5F01937F722BBFEF1
:1003D0000D09F8E325F0F3C5F019E338F322F889A5
:1003E000828A8374019325F0C5F0F8E4933822BB28
:1003F000010A89828A83F0E5F0A3F0225006F7090A
:10040000A7F01922BBFE06F3E5F009F31922EB9FD2
:10041000F5F0EA9E42F0E99D42F0E89C45F022E8C2
:10042000600FECC313FCED13FDEE13FEEF13FFD8CA
:10043000F122E8600FEFC333FFEE33FEED33FDEC46
:1004400033FCD8F122E709F60870FA8046E709F292
:100450000870FA803E88828C83E709F0A370FA80E6
:100460007EE309F60870FA8076E309F20870FA80F4
:100470006E88828C83E309F0A370FA806289828A95
:1004800083E0A3F60870FA805689828A83E0A3F29B
:100490000870FA804A80D280FA80C680D480658055
:1004A000F28031801080A680EA809A80A880DA806D
:1004B000E280CA803189828A83ECFAE493A3C8C5BA
:1004C00082C8CCC583CCF0A3C8C582C8CCC583CCB8
:1004D00070E9800D89828A83E493A3F60870F9ECB1
:1004E000FAA9F0EDFB2289828A83ECFAE0A3C8C561
:1004F00082C8CCC583CCF0A3C8C582C8CCC583CC88
:1005000070EA80DD89828A83E493A3F20870F9801F
:10051000CE88F0ED2402B4040050C4F582EB24022E
:10052000B4040050BA232345822390049573C5F088
:10053000F8A3E028F0C5F0F8E58215827002158373
:10054000E038F022FAE6FB0808E6F925F0F618E6AE
:10055000CA3AF622D083D082F8E4937012740193E1
:10056000700DA3A393F8740193F5828883E47374E8
:1005700002936860EFA3A3A380DF7F64120DB8121B
:100580000DCB7BFF7A07793D120065120BDA8F22C3
:10059000120D1D7BFF7A077944120065120E0BEFD6
:1005A000641460077F64120DB880F17FC8120DB823
:1005B000E4F5227F32120DB87BFF7A0779531200DF
:1005C00065120E9AEF641460090522E522C3940AAD
:1005D00040E17BFF7A07795C1200657BFF7A07793F
:1005E00062120C918F22E5226414702A120E8E8FF3
:1005F0002E8E2D8D2C8C2B7BFF7A07796E12006549
:100600007BFF7A07797F1200657FFF7EFF7DFF7C8D
:10061000FF120B9E8017E522B442167BFF7A077902
:100620008C1200657B007A007900120E1A8F2280EE
:1006300002AF22120D1D7BFF7A077994120065121A
:100640000E8E8F318E308D2F8C2E752BFF752C07D3
:10065000752DA17B007A00794A12005F1208C08FC5
:1006600022120D1D7BFF7A0779BA120065D28C75B4
:100670002508752305E58B541FF524AF8CEFAD8A53
:10068000F526EDF527752BFF752C07752DCA752EF0
:100690000085232F8524307531008525328526334A
:1006A000F5347B007A00794A12005F1208C08F226D
:1006B000120D1D7F6C120E348F2E8E2D8D2C8C2BD7
:1006C0007BFF7A0779E21200650525E525B414A2BF
:1006D0007BFF7A087908120065784A7C007D007BF0
:1006E000FF7A0879131205117B007A00794A120DFE
:1006F000A3CCEECCCDEFCD1208C68F22120D1D7B00
:10070000FF7A08792B1200657F01120E688F221282
:100710000D1D7BFF7A087932120065120E0BBF1493
:10072000077F64120DB880F37FC8120DB8020593DD
:100730004572726F723A20253032580A0053746144
:1007400072740A005761697420556469736B2F5382
:10075000440A005265616479203F0A004F70656E5B
:100760000A002F4D595F4144432E545854004669A6
:100770006C652073697A65203D20256C640A004C05
:100780006F63617465207461696C0A00437265610E
:1007900074650A00577269746520626567696E0A3C
:1007A00000B4CBC7B0CEC4BCFEB3A4B6C83D2025B0
:1007B0006C6420D7D6BDDA0D0A00577269746520C3
:1007C00041444320646174610A00253032642E255F
:1007D0003032642E25303264204144433D25750D6E
:1007E0000A0043757272656E74206F666673657475
:1007F00020282066696C6520706F696E742029203E
:10080000697320256C640A00577269746520656EEF
:10081000640A00BDF1CCECB5C4414443CAFDBEDD61
:10082000B5BDB4CBBDE1CAF80D0A00436C6F73656A
:100830000A0054616B65206F75740A008B108A1171
:1008400089128B138A148915AB13AA14A9151203E4
:100850005F600D74012515F515E43514F51480E875
:10086000AB13AA14A91512035FFF645C6028EF6440
:100870002F6023E5108511838512826B7008E9656E
:10088000827003EA6583600E74FF2515F51574FF09
:100890003514F51480CAE51085118385128265131D
:1008A000700AE51565827004E5146583600B7401B8
:1008B0002515F515E43514F514C3E5159512FF2239
:1008C0008F22EFFD7C00752D00752E00752F007BAB
:1008D000007A00794A8B288A29892A7F3C120DDC0C
:1008E000CFEDCF120E05CFECCF120E05E52E452F22
:1008F000452D600CAB2DAA2EA92FE4F5F01203EFC5
:10090000120AE2CEEFCEEE641E7034AB28AA29A9FB
:100910002A120CFBCEEFCE7F3D120DDCEEFD7C00EB
:10092000252AF52AEC3529F529E52E452F452D6098
:10093000CFAB2DAA2EA92FEC8DF01203B780C1CF1B
:10094000EECF22120E59CDEFCD120E59CEEFCE12B0
:100950000E598F28120E598F29CFEECFEFFEEDFFE3
:10096000E4FCFDECC0E0EDC0E0EEC0E0EFC0E0AFC5
:1009700028E4FE7810120432D0E0FBD0E0FAD0E098
:10098000F9D0E0F8EF4BFFEE4AFEED49FDEC48FCF4
:10099000ECC0E0EDC0E0EEC0E0EFC0E0AF29E4FC69
:1009A000FDFE7818120432D0E0FBD0E0FAD0E0F976
:1009B000D0E0F8EF4BFFEE4AFEED49FDEC48FC229B
:1009C0008B088A09890A7F3A120DDCCFEDCF120E0F
:1009D00005CFECCF120E05E50E450F450D600CABB3
:1009E0000DAA0EA90FE4F5F01203EF120AE2CEEF02
:1009F000CEEE641D7034AB08AA09A90A120CD9CE38
:100A0000EFCE7F3B120DDCEEFD7C00250AF50AECF3
:100A10003509F509E50E450F450D60CFAB0DAA0E62
:100A2000A90FEC8DF01203B780C1CFEECF228B1B44
:100A30008A1C891D8D1EE4FF751F01AB1BAA1CA912
:100A40001D851F82758300120378FE645C600CEEC6
:100A5000642F6007EE6004051F80E0EE6004051F50
:100A60008003E4F51FAB1B7E00E51D2FF9EE351C5E
:100A7000FA120C91E51F601A651E6016EF64416062
:100A80000DBF14037F4322BF42037FB32222AF1F57
:100A900080A9228B478A488949EA494B603E7F01F9
:100AA000AB47AA48A9498F82758300120378FE6478
:100AB0005C600BEE642F6006EE60030F80E2EE6078
:100AC00012AB47AA48A949120EA0BF1405EF644112
:100AD000600A22AB47AA48A949120C3E7F35120E84
:100AE0008022E4F533F532F531F5307F407E4B7DE1
:100AF0004C7C00AB33AA32A931A830C312040E508B
:100B000020120E4CEF6003020E5FE5332401F53333
:100B1000E43532F532E43531F531E43530F5308005
:100B2000CA7FFA22E4F52FF52EF52DF52C7F64CE41
:100B3000EFCE7F0D120DFFAF2F120E05E52EFF1227
:100B40000E05AF2FAE2EAD2DAC2C781012041F1257
:100B50000E05AF2FAE2EAD2DAC2C781812041F024F
:100B60000E058B3C8A3D893E12083C8F3FE53F6075
:100B70001CAB3CAA3DA93EFD120A2EEF6441600D5C
:100B8000BF14037F4322BF42037FB32222AB3C7ECC
:100B900000E53E253FF9EE353DFA120E1A228F2B65
:100BA0008E2A8D298C287F39120DDCAF2B120E0571
:100BB000E52AFF120E05AF2BAE2AAD29AC2878101E
:100BC00012041F120E05AF2BAE2AAD29AC287818DF
:100BD00012041F120E05120AE222120EAC7F061238
:100BE0000DDC7F65120E05120E59EF649A60037FCB
:100BF000FA227F15120DDC7F06120E057F14120DEE
:100C0000F4120E59BF51037F14227FFA228F438EB4
:100C1000428D418C407F4A120DDCAF43120E05E538
:100C200042FF120E05AF43AE42AD41AC4078101208
:100C3000041F120E05E4FF120E05120AE2227F2F96
:100C4000120DDC12035FFEFF801AEE601C74012996
:100C5000F9E43AFA12035FFE645C6003BE2F02E41B
:100C6000FECFEECF120E0580E122EFB40A07740D1D
:100C7000120C75740A309811A899B8130CC29830E8
:100C800098FDA899C298B811F63099FDC299F599C6
:100C9000228B288A29892A120C3EAB28AA29A92A44
:100CA00012035FFF645C6004EFB42F03120B247F18
:100CB00032120E80228B448A458946120C3EAB4488
:100CC000AA45A94612035FFF645C6004EFB42F03DA
:100CD000120B247F40120E80227F27120E56CEEF79
:100CE000CECDEECDEE6010120E59EF1203A57401B9
:100CF00029F9E43AFADEF0CFEDCF227F2D120E561D
:100D0000CEEFCECDEECDEE601012035FFF120E05DA
:100D1000740129F9E43AFADEF0CFEDCF22EF641442
:100D2000601A7BFF7A077930752B008F2C120065D3
:100D30007FC8120DB87FC8120DB880F4227F2E1222
:100D40000DFCAF1A120E05E51A601112035FFF12B7
:100D50000E05740129F9E43AFAD51AEF227F2C1214
:100D60000DFCEE601012035FFF120E05740129F9ED
:100D7000E43AFADEF022CEEDCECDEFCD7F0B120DB0
:100D8000DCCFEDCF120E05CFEECF020E057F0512A0
:100D90000DB87F5A120E80CCEFCC7F05120DB8CF64
:100DA000ECCF22E4FFFE12035F600C0FEF70010E28
:100DB00009E970F20A80EF22CDEFCDCFEDCF1DEF24
:100DC0006008120DED120DED80F1227598507587B7
:100DD00080758921758DF3D28ED2992290BDF1EF65
:100DE000F07F0A90BDF1E030E402DFF7227FFA12D3
:100DF0000DF47FFACEEFCE1FEE70F922CEEDCE12BB
:100E00000DDCCFEECF90BCF0EFF022120E4CEF6075
:100E100003120E5F7F30120E8022EA494B600312EC
:100E20000C3E7F34120E8022CEEFCE7F0A120DFFD1
:100E3000120E5922CEEFCE7F0C120DFF1209432263
:100E4000787FE4F6D8FD75818902057A30B2047F97
:100E50000080027F0122120DDC90BCF0E0FF227FB7
:100E600022120DDC120E5922CDEFCD7F36120E87E5
:100E7000227DFF7F37120E8722E4FD7F0D020D7663
:100E8000120DDC120AE222120DFC120AE2227F6825
:100E9000120E34227F2B120E28227F31120E802256
:0D0EA0007DFF120A2E227F38120E802222C2
:00000001FF
