:100000000217DDE5342428F8E60534227825300788
:10001000027828E475F00112066B0204552000EB0B
:100020007F2ED2008018EF540F2490D43440D4FF98
:1000300030040BEF24BFB41A0050032461FFE535F0
:10004000600215350538E5387002053730070D7840
:1000500025E475F00112066BEF02049B02160B7487
:1000600003D2078003E4C207F5348B258A2689274B
:10007000E4F535F537F538E53560077F2012003EA9
:1000800080F57536FFC201C200C202C203C205C2BA
:1000900006C20812000CFF700D3007057F00120029
:1000A0004FAF38AE3722B4255FC2D5C20412000C60
:1000B000FF24D0B40A00501A75F00A783530D505FF
:1000C00008B6FF0106C6A426F620D5047002D203A6
:1000D00080D924CFB41A00EF5004C2E5D204020242
:1000E0004FD20180C6D20080C0D20280BCD2D5805F
:1000F000BAD20580B47F2012003E2002077401B5F9
:10010000350040F1120003FF12003E020077D208D2
:10011000D2068095120003FB120003FA120003F9C5
:100120004A4B700679207A037BFF20022EE535606A
:100130002A7E008E8275830012046E60060EEE65C4
:100140003670F0C2D5EBC0E0EAC0E0E9C0E0EE12E4
:100150000296D0E0F9D0E0FAD0E0FB120455FF603F
:10016000AAEBC0E0EAC0E0E9C0E012003ED0E02423
:1001700001F9D0E03400FAD0E0FBE5360460DCD5CC
:1001800036D980877BFF7A027992D202809C7910DF
:1001900080027908C206C2088008D2D5790A800494
:1001A000790AC2D5E536047002F536E4FAFDFEFFA1
:1001B000120003FC7B08200113120003FD7B1030AA
:1001C000000A120003FE120003FF7B20EC3382D5ED
:1001D00092D55013C3E43000069FFFE49EFEE42056
:1001E00001039DFDE49CFCE4CBF8C201EC700CCF54
:1001F000CECDCCE824F8F870F38017C3EF33FFEED0
:1002000033FEED33FDEC33FCEB33FB994002FB0F87
:10021000D8E9EB300105F8D0E0C448B201C0E00AEB
:10022000EC4D4E4F78207B0070C2EAB5360040BCE2
:10023000C0E0120298D0F0D0E0200104C4C0E0C4B5
:10024000B201C0F0120027D0F0D5F0EB0200771217
:10025000067B011453018E5800E54C00E1420192E7
:100260004F019A44019A4900FA4301A0550184467E
:1002700001844501844703405000E92D00ED2E0123
:10028000102B00F123010E2003292A00A9480000A9
:1002900001083F3F3F00790AA2D520031430050929
:1002A000B910020404B9080104A2D52006025001C5
:1002B000042002689202B535005034C0E07F20303F
:1002C00003197F30A20272067205500F1202EFC2AC
:1002D00002C206C205C2087F30800F300503E9C0A4
:1002E000E012003E300503D0E0F9D0E0B535CC3067
:1002F00005177F30B9100C12003E7F583004077F7D
:10030000788003B9080312003E3002057F2D0200F9
:100310003E7F202008F87F2B2006F322920280CF18
:10032000286E756C6C2900D2011200033001F8C2EE
:1003300001783530D50108F60200A92D50434958FF
:100340001200032403B405004001E490033B931220
:10035000002F743A12002FD20375350402018EE784
:1003600009F608DFFA8046E709F208DFFA803E88DE
:10037000828C83E709F0A3DFFA8032E309F608DF15
:10038000FA8078E309F208DFFA807088828C83E3D0
:1003900009F0A3DFFA806489828A83E0A3F608DF8C
:1003A000FA805889828A83E0A3F208DFFA804C80C1
:1003B000D280FA80C680D4806980F2803380108039
:1003C000A680EA809A80A880DA80E280CA80338999
:1003D000828A83ECFAE493A3C8C582C8CCC583CCD7
:1003E000F0A3C8C582C8CCC583CCDFE9DEE7800DA9
:1003F00089828A83E493A3F608DFF9ECFAA9F0ED89
:10040000FB2289828A83ECFAE0A3C8C582C8CCC5E6
:1004100083CCF0A3C8C582C8CCC583CCDFEADEE8B4
:1004200080DB89828A83E493A3F208DFF980CC8899
:10043000F0EF60010E4E60C388F0ED2402B40400BA
:1004400050B9F582EB2402B4040050AF2323458257
:10045000239003AF73BB010689828A83E022500296
:10046000E722BBFE02E32289828A83E49322BB0156
:100470000CE58229F582E5833AF583E0225006E90E
:100480002582F8E622BBFE06E92582F8E222E58213
:1004900029F582E5833AF583E49322BB010689823C
:1004A0008A83F0225002F722BBFE01F322F8BB013F
:1004B0000DE58229F582E5833AF583E8F0225006BE
:1004C000E92582C8F622BBFE05E92582C8F222BCD6
:1004D000000BBE0029EF8DF084FFADF022E4CCF8D4
:1004E00075F008EF2FFFEE33FEEC33FCEE9DEC9839
:1004F0004005FCEE9DFE0FD5F0E9E4CEFD22EDF8BF
:10050000F5F0EE8420D21CFEADF075F008EF2FFF61
:10051000ED33FD4007985006D5F0F222C398FD0F49
:10052000D5F0EA22BB0110E58229F582E5833AF590
:1005300083E0F5F0A3E0225009E92582F886F0086F
:10054000E622BBFE0AE92582F8E2F5F008E222E5A0
:10055000832AF583E993F5F0A3E99322BB01078988
:10056000828A83020655500B09C5F027F7C5F0199A
:1005700037F722BBFE0D09F8E325F0F3C5F019E3C8
:1005800038F322F889828A8374019325F0C5F0F844
:10059000E4933822BB010A89828A83F0E5F0A3F054
:1005A000225006F709A7F01922BBFE06F3E5F00971
:1005B000F31922F8BB0111E58229F582E5833AF5AA
:1005C00083E8F0E5F0A3F0225009E92582C8F60897
:1005D000A6F022BBFE09E92582C8F2E5F008F22266
:1005E000EB9FF5F0EA9E42F0E99D42F0E89C45F071
:1005F00022E8600FECC313FCED13FDEE13FEEF13C6
:10060000FFD8F122E8600FEFC333FFEE33FEED3386
:10061000FDEC33FCD8F122E6FC08E6FD08E6FE0816
:10062000E6FF22E6FB08E6F908E6FA08E6CBF82240
:10063000ECF608EDF608EEF608EFF622D083D0824D
:10064000E493F608740193F608740293F6087403B1
:1006500093F6740473C5F0F8A3E028F0C5F0F8E54C
:1006600082158270021583E038F022FAE6FB080852
:10067000E6F925F0F618E6CA3AF622D083D082F8D9
:10068000E4937012740193700DA3A393F874019313
:10069000F5828883E4737402936860EFA3A3A38058
:1006A000DF8B258A268927E4F52EF52FC3E52F94C5
:1006B00008E52E94025020AB28AA29A92A852F826A
:1006C000852E8312052445F0600D7402252FF52F29
:1006D000E4352EF52E80D5E52F452E6015C3E52F88
:1006E0009408E52E9402500AE52F94FEE52E94011D
:1006F00040037F4922AE2EAF2F7C007D1A1204CF1B
:100700008F2DE52D75F01AA4FEC3E52F9EF52C6004
:1007100052052DE52D75F01AA4D39408E5F06480F8
:10072000948240037F48227402252FF52FE4352E52
:10073000F52E052C052CE52CC3941A5026AF2C055C
:100740002CEFC3941A501CAB28AA29A92A052FE51F
:100750002FAE2E7002052E14F5828E8374FF1204C4
:10076000AD80DAAB25AA26A9271218388F2BE52BE6
:10077000B41406752B4A0209D2E52B64426003AF1C
:100780002B22AB25AA26A92712150D8F2BE52B644A
:10079000146001227F3B1217C58F2CAB25AA26A916
:1007A000271210578F2BE52B641460030209D27FA8
:1007B0006C1217D1C8ECC8C9EDC9CAEECACBEFCBD1
:1007C000E52C75F020A4FFAEF0E4FCFDEB2FF53333
:1007D000EA3EF532ED39F531EC38F530AF33AE3273
:1007E000AD31FC1214518F2BE52B64146003020908
:1007F000D2753900753A00753B007A00796512129E
:10080000368F2BE52B641460030209D2852D2CE56D
:100810002C70030208C31212298F2BE52B6414607D
:10082000030209D2E52F452E70030208C37845E67E
:1008300070030208BE64E570030208BE1214498FFB
:100840002BE52B641460030209D2784576E5752BFD
:10085000017465252BF8E6FF7445252BF8EFF605A6
:100860002BE52BB420EB1211198F2BE52B641460B0
:10087000030209D21212298F2BE52B6414600302A4
:1008800009D2E52F452E60057845E670E77F6C12AA
:1008900017D18F338E328D318C30E52D04F52CE558
:1008A0002F452E601EC3E5339420F533E5329400C6
:1008B000F532E5319400F531E5309400F530152C32
:1008C00002080FE52C604F7F381217C58F2BE52BE0
:1008D000B48006752BB20209D2E52B752F0025E0F6
:1008E000F52EE52C75F020A4FFC3E52F9FE52E958E
:1008F000F0500BE52F25E0F52FE52E33F52E7B008C
:100900007A007900AD2FAC2E1211238F2BE52B64CA
:100910001460030209D21214498F2BE52B64146072
:10092000030209D27850760FE408F6FB7A00796565
:1009300012157C08EFF6E4785FF608F6F52BE52D46
:1009400070030209C9E52B6004AF2D8005E52D4435
:1009500040FF7845EFF6152DE52D75F01AA4FFAE92
:10096000F0752B01E52BC39420504EE52BB40B05FD
:10097000752B0E8008E52BB41A03752B1CAB28AA27
:1009800029A92A0FEFCCEECC70010E14F5828C83CE
:1009900012046EFD7445252BF8EDF60FEFCCEECC6E
:1009A00070010E14F5828C8312046EFD7446252BA3
:1009B000F8EDF6052B052B80AB1211198F2BE52BCB
:1009C0006414700302093E80097A00796512111DD2
:1009D0008F2BE4FF121807AF2B227F6412174512EA
:1009E00017587BFF7A0C79F81200651215498F228F
:1009F00012169F7BFF7A0C79FF1200651217A8EF81
:100A0000641460077F6412174580F17FC812174590
:100A1000E4F5227F321217457BFF7A0D790E120022
:100A200065121832EF641460090522E522C3940AA6
:100A300040E17BFF7A0D791712006578007C007D1C
:100A4000017BFF7A0E79787E007F7C12042FE49080
:100A5000007CF0A3F0752801752900752A007BFF42
:100A60007A0D793B1206A18F22E522B414087BFF90
:100A70007A0D794D8017E5227BFFB44A067A0D790D
:100A80006D800A7A0D798D752800852229120065FE
:100A90007BFF7A0D799F120065E4F523F524E524A8
:100AA000900EF493FD602BE52425E0FFE52333FE53
:100AB00074002FF58274003EF583EDF074012FF57C
:100AC0008274003EF583E4F00524E52470D005230C
:100AD00080CCE52425E0FFE52333FE74002FF5826A
:100AE00074003EF583E4F074012FF58274003EF546
:100AF00083E4F0752801752900752A007BFF7A0DC3
:100B000079C31206A18F22E522B414087BFF7A0D67
:100B100079CF8017E5227BFFB44A067A0D796D8084
:100B20000A7A0D798D7528008522291200657BFFD0
:100B30007A0D79EF120065752801752900752A0074
:100B40007BFF7A0D793B120F118F22E5226414701E
:100B50006E7BFF7A0E7916120065E4F523F524C347
:100B6000E5249408E5239402504D7BFF7A0E792406
:100B700074002524F58274003523F583E075280080
:100B8000F52974012524F58274003523F583E07579
:100B90002A00F52B12006574002524F582740035B7
:100BA00023F583E0FEA3E04E600D74022524F524B6
:100BB000E43523F52380A87BFF7A0E792F800C7B08
:100BC000FF7A0D798D7528008522291200657BFF3B
:100BD0007A0E7934120065752801752900752A008E
:100BE0007BFF7A0D79C3120F118F22E52264146006
:100BF00003020CBC7BFF7A0E7916120065E4F52324
:100C0000F524C3E5249408E5239402504D7BFF7A34
:100C10000E792474002524F58274003523F583E0D1
:100C2000752800F52974012524F58274003523F513
:100C300083E0752A00F52B12006574002524F582E7
:100C400074003523F583E0FEA3E04E600D740225A9
:100C500024F524E43523F52380A87BFF7A0E792F31
:100C60001200657BFF7A0E795B120065E4F523F5CF
:100C700024C3E5249408E523940250387BFF7A0EC0
:100C8000796974002524F58274003523F583E0F535
:100C90002812006574002524F58274003523F5833D
:100CA000E0FEA3E04E600D74022524F524E4352314
:100CB000F52380BD7BFF7A0E796C800C7BFF7A0D6B
:100CC000798D7528008522291200657BFF7A0E79BF
:100CD0006E1200651217A8BF14077F6412174580B3
:100CE000F37FC81217450209F34572726F723A20FA
:100CF000253032580A002F0053746172740A00576D
:100D000061697420556469736B2F53440A005265FE
:100D1000616479203F0A00437265617465206669E9
:100D20006C652077697468204368696E6573652017
:100D30006C6F6E67206E616D650A002F4335312F31
:100D4000B3A4CEC4BCFEC3FB2E54585400437265FA
:100D500061746564204368696E657365204C6F6ECD
:100D600067204E616D65204F4B21210A0054686554
:100D70002073686F7274206E616D6520616C72659E
:100D800061647920657869737420210A0045727264
:100D90006F7220436F64653A20253032580A004351
:100DA00072656174652066696C6520776974682076
:100DB000456E676C697368206C6F6E67206E616D3D
:100DC000650A002F4C4F4E474E414D452E4800437B
:100DD00072656174656420456E676C697368204C48
:100DE0006F6E67204E616D65204F4B21210A0047D1
:100DF0006574204368696E657365206C6F6E67204B
:100E00006E616D652066726F6D2073686F727420FD
:100E10006E616D650A004C6F6E674E616D6542755F
:100E2000663A2000253032582D253032582C0045A6
:100E30004E440A0047657420456E676C69736820EC
:100E40006C6F6E67206E616D652066726F6D2073CA
:100E5000686F7274206E616D650A004C6F6E674E2C
:100E6000616D652069733A20002563000A005461B2
:100E70006B65206F75740A00FA5ECB7A7F95876583
:100E8000F64E0D540CFF938F6551244E2A4EC253DB
:100E900070651AFF200031002E00C79128752800C8
:100EA00075006E00690063006F006400650020003B
:100EB0002759EF7A29000CFF575B267B324E2B67B0
:100EC0003E5C2875244E2A4E300068883A79D37EDD
:100ED0005F673B0032002E0041004E005300490086
:100EE000167F0178ED778765F64E0D542E0054007D
:100EF0005800540054686973206973204C6F6E6702
:100F0000204E616D652046696C65202121212E48A7
:100F1000008B258A2689271218388F2BE52B64141D
:100F20006007E52B64416001221218108F2BE52B1E
:100F3000641460012212177A7A00794512157C78C0
:100F400065EFF67F3B1217C508EFF6E4F52CF52D9B
:100F50007866E6702AAB25AA26A9271210578F2B90
:100F6000E52B6414600302104F7F6C1217D1E4FB71
:100F7000FAF9F8C31205E07002802D7866761078D1
:100F80006616E6FD7F3712181F8F2BE52B64146061
:100F90000302104F12177A7850E6543FFFBF0F0834
:100FA0007952E77865666006752B4902104F752BFC
:100FB00001E52BC394205072E52BB40B05752B0E65
:100FC0008008E52BB41A03752B1C7445252BF8E615
:100FD000FFAB28AA29A92A052DE52DAC2C70020506
:100FE0002C14F5828C83EF1204AD7446252BF8E6A1
:100FF000FF052DE52DAC2C7002052C14F5828C8399
:10100000EF1204AD7445252BF8E670087446252BC5
:10101000F8E66016C3E52D9408E52C9402400575AA
:101020002B48802B052B052B80877845E620E6038F
:10103000020F50E52BC394204012AB28AA29A92AFD
:10104000852D82852C83E4F5F01205B3752B14E40D
:10105000FF121807AF2B228B348A3589367F0C128A
:1010600017697F5C1217A27537041217EE744525B5
:1010700037F8EFF60537E537B408EFAB34AA35A9F2
:10108000361211A58F37E537600EAB34AA35A93675
:10109000FD1213958F37800B7BFF7A0C79F61216B1
:1010A000578F37E53764416003AF37227845120622
:1010B0003C0000000078451206171215AE8F37E588
:1010C0003764146001227B007A00794D1216327861
:1010D00049120617784D120623C31205E070037FEC
:1010E00014227F0D1217697F5C1217A275370874DE
:1010F000452537F8E6FF1217A20537E537B40CEFA0
:101100007845120617EF2401FFE43EFEE43DFDE4BE
:101110003CFC7845120630809C7A0079457B007D46
:10112000207C008B348A358936CBEDCBCAECCA7F64
:101130002B1217C58F37E537B412077D137F2B129B
:1011400017187F3C121769CFEBCF1217A2CFEACF47
:101150001217A212148DCCEFCCEC641E7038E5355A
:10116000453645346015AB34AA35A9361216BFEFA3
:101170002536F536E43535F53580141217E9CCEF10
:10118000CCCFECCF1CEF6007E4FF1217A280F27FF8
:101190003D12176980BDE537B41206FD7F2B12178B
:1011A00018CFECCF228B388A39893A8B3B8A3C891D
:1011B0003DAB3BAA3CA93D120455600D7401253D91
:1011C000F53DE4353CF53C80E8AB3BAA3CA93D123B
:1011D0000455FF645C6028EF642F6023E53885398F
:1011E00083853A826B7008E965827003EA658360E3
:1011F0000E74FF253DF53D74FF353CF53C80CAE596
:1012000038853983853A82653B700AE53D65827091
:1012100004E53C6583600B7401253DF53DE4353CF8
:10122000F53CC3E53D953AFF22753900753A0075E6
:101230003B2E7A0079457B007D207C008B348A35FB
:1012400089367F3A121769CFEDCF1217A2CFECCFB4
:101250001217A2E53A453B4539600CAB39AA3AA9C9
:101260003BE4F5F012059412148DCEEFCEEE641D22
:101270007034AB34AA35A936121632CEEFCE7F3B8E
:10128000121769EEFD7C002536F536EC3535F5355F
:10129000E53A453B453960CFAB39AA3AA93BEC8DDD
:1012A000F012055C80C1CFEECF221217EECDEFCD4C
:1012B0001217EECEEFCE1217EE8F341217EE8F35D7
:1012C000CFEECFEFFEEDFFE4FCFDECC0E0EDC0E0C3
:1012D000EEC0E0EFC0E0AF34E4FE7810120604D0B8
:1012E000E0FBD0E0FAD0E0F9D0E0F8EF4BFFEE4AB7
:1012F000FEED49FDEC48FCECC0E0EDC0E0EEC0E0E6
:10130000EFC0E0AF35E4FCFDFE7818120604D0E033
:10131000FBD0E0FAD0E0F9D0E0F8EF4BFFEE4AFE68
:10132000ED49FDEC48FC228B088A09890A7F3C12B2
:101330001769CFEDCF1217A2CFECCF1217A2E50E8F
:10134000450F450D600CAB0DAA0EA90FE4F5F01288
:10135000059412148DCEEFCEEE641E7034AB08AA45
:1013600009A90A1216BFCEEFCE7F3D121769EEFD16
:101370007C00250AF50AEC3509F509E50E450F450F
:101380000D60CFAB0DAA0EA90FEC8DF012055C809D
:10139000C1CFEECF228B388A39893A8D3BE4FF7575
:1013A0003C01AB38AA39A93A853C82758300120406
:1013B0006EFE645C600CEE642F6007EE6004053C1A
:1013C00080E0EE6004053C8003E4F53CAB387E0031
:1013D000E53A2FF9EE3539FA121657E53C601A65F1
:1013E0003B6016EF6441600DBF14037F4322BF4290
:1013F000037FB32222AF3C80A9228B188A19891A55
:10140000EA494B603E7F01AB18AA19A91A8F827571
:10141000830012046EFE645C600BEE642F6006EEC7
:1014200060030F80E2EE6012AB18AA19A91A121815
:1014300038BF1405EF6441600A22AB18AA19A91A33
:101440001215DF7F3512181822AF33AE32AD31AC32
:10145000308F378E368D358C347F39121769AF3720
:101460001217A2E536FF1217A2AF37AE36AD35AC74
:101470003478101205F11217A2AF37AE36AD35AC85
:101480003478181205F11217A212148D22E4F543D4
:10149000F542F541F5407F407E4B7D4C7C00AB43EF
:1014A000AA42A941A840C31205E050201217F4EF48
:1014B00060030217FEE5432401F543E43542F5429B
:1014C000E43541F541E43540F54080CA7FFA22E435
:1014D000F544F543F542F5417F64CEEFCE7F0D1222
:1014E000179CAF441217A2E543FF1217A2AF44AEF8
:1014F00043AD42AC4178101205F11217A2AF44AED1
:1015000043AD42AC4178181205F10217A28B348A20
:101510003589361211A58F37E537601CAB34AA35F3
:10152000A936FD121395EF6441600DBF14037F438C
:1015300022BF42037FB32222AB347E00E53625373B
:10154000F9EE3535FA1217B7221218447F06121732
:10155000697F651217A21217EEEF649A60037FFA93
:10156000227F151217697F061217A27F1412179196
:101570001217EEBF51037F14227FFA228B348A3573
:101580008936E4FFFEEFC313FDEF30E0047C80807A
:10159000027C00ED2CFFAB340536E536AA3570022F
:1015A000053514F91204552FFF0EBE0BD8228F3BC0
:1015B0008E3A8D398C387F4A121769AF3B1217A2C9
:1015C000E53AFF1217A2AF3BAE3AAD39AC3878100E
:1015D0001205F11217A2E4FF1217A212148D227F36
:1015E0002F121769120455FEFF801AEE601C740159
:1015F00029F9E43AFA120455FE645C6003BE2F0236
:10160000E4FECFEECF1217A280E122EFB40A0774F6
:101610000D121616740A309811A899B8130CC298B6
:101620003098FDA899C298B811F63099FDC299F585
:1016300099227F271217691217EECEEFCECDEECD8D
:10164000EE60101217EEEF12049B740129F9E43AD0
:10165000FADEF0CFEDCF228B3D8A3E893F1215DFB7
:10166000AB3DAA3EA93F120455FF645C6004EFB491
:101670002F031214CF7F32121818228B158A168965
:10168000171215DFAB15AA16A917120455FF645CD3
:101690006004EFB42F031214CF7F4012181822EF0A
:1016A0006414601A7BFF7A0C79E97528008F29127F
:1016B00000657FC81217457FC812174580F42212B3
:1016C00017E9CEEFCECDEECDEE6010120455FF122D
:1016D00017A2740129F9E43AFADEF0CFEDCF227FA8
:1016E0002E121799AF141217A2E5146011120455A7
:1016F000FF1217A2740129F9E43AFAD514EF227FF8
:101700002C121799EE6010120455FF1217A27401E3
:1017100029F9E43AFADEF022CEEDCECDEFCD7F0B03
:10172000121769CFEDCF1217A2CFEECF0217A27F0B
:10173000051217457F5A121818CCEFCC7F051217E7
:1017400045CFECCF22CDEFCDCFEDCF1DEF6008120E
:10175000178A12178A80F1227598507587807589CB
:1017600021758DF3D28ED2992290BDF1EFF07F0AD0
:1017700090BDF1E030E402DFF7227B007A0079458A
:10178000121632E4FD7F0D0217187FFA1217917FAF
:10179000FACEEFCE1FEE70F922CEEDCE121769CF42
:1017A000EECF90BCF0EFF0221217F4EF60031217A7
:1017B000FE7F3012181822EA494B60031215DF7FB2
:1017C0003412181822CEEFCE7F0A12179C1217EE91
:1017D00022CEEFCE7F0C12179C1212AA22787FE441
:1017E000F6D8FD7581840209DA7F2D12176990BC45
:1017F000F0E0FF2230B2047F0080027F01227F22CE
:101800001217691217EE22CDEFCD7F3612181F2264
:101810007DFF7F3712181F2212176912148D2212B2
:10182000179912148D227F681217D1227F2B12175D
:10183000C5227F31121818227DFF121395227F389E
:0518400012181822221D
:00000001FF
