:100000000201D05C4D595F4144432E545854005472
:1000100068697320697320666972737420737472DF
:10002000696E672C5C78645C7861005365636F6E01
:100030006420737472696E6720BDE1CAF8215C7830
:10004000645C786100FFDFFE227FFA0000000000A0
:1000500000DFF81470F32290BDF1F0002290BCF0A4
:10006000F02290BCF0E02290BDF1E0332274151232
:100070000057740612005D7414120062D36451704C
:1000800001C3227427120057120062FF6008FE129B
:100090000062F608DEF922742D120057120062FF8A
:1000A0006008FEE60812005DDEF922C082C083749B
:1000B0002F120057D083D082E493A3C082C0831252
:1000C000005DD083D08270F022742212005712009B
:1000D000622212006740FB1200C9B41402C322D38B
:1000E0002274301200570200D274311200570200FD
:1000F000D2E493C0E01200ABD0E0B45C028003B461
:100100002F1A740D120057746412005DE412005D22
:10011000E412005DE412005DE412005D743212002E
:10012000570200D21200AB74341200570200D2C042
:10013000E07436120057D0E012005D0200D274392C
:10014000120057EC12005DED12005DEE12005DEF43
:1001500012005D0200D2743A120057EE12005DEFF9
:1001600012005DE4FCFD1200D25015B41D11120006
:1001700083EC2FFCED3400FD743B12005780E7D375
:1001800022743C120057EE12005DEF12005DE4FC99
:10019000FD1200D25015B41E11120097EC2FFCED89
:1001A0003400FD743D12005780E7D322E493A3F698
:1001B0000870F92274FF180804B600FB22400122DF
:1001C000C2947464120049D294746412004980F09D
:1001D0007581CFC2947464120049D29412006D12DA
:1001E00001BD1200E15007746412004980F474FAF2
:1001F000120049C2947A0A1200E9500774321200C0
:1002000049DAF49000031200F15012B4420B90004E
:10021000031201241201BD8012D31201BD7CFF7DA7
:10022000FF7EFF7FFF12013E1201BD90000F780894
:100230001201AC78081201B4FE7F00780812018127
:100240001201BD90002B78081201AC78081201B49D
:10025000FE7F0078081201811201BD740112012F86
:100260001201BDD2941200E140077464120049806B
:09027000F474C81200490201E215
:00000001FF
