:10000000020CE0E518240CF8E60518227809300700
:1000100002780CE475F00112047D02035F2000EB0E
:100020007F2ED2008018EF540F2490D43440D4FF98
:1000300030040BEF24BFB41A0050032461FFE5190C
:1000400060021519051CE51C7002051B30070D78B0
:1000500009E475F00112047DEF0203A5020B1F7481
:1000600003D2078003E4C207F5188B098A0A890BBB
:10007000E4F519F51BF51CE51960077F2012003E19
:1000800080F5751AFFC201C200C202C203C205C2D6
:1000900006C20812000CFF700D3007057F00120029
:1000A0004FAF1CAE1B22B4255FC2D5C20412000C98
:1000B000FF24D0B40A00501A75F00A781930D5051B
:1000C00008B6FF0106C6A426F620D5047002D203A6
:1000D00080D924CFB41A00EF5004C2E5D204020242
:1000E0004FD20180C6D20080C0D20280BCD2D5805F
:1000F000BAD20580B47F2012003E2002077401B5F9
:10010000190040F1120003FF12003E020077D208EE
:10011000D2068095120003FB120003FA120003F9C5
:100120004A4B700679207A037BFF20022EE5196086
:100130002A7E008E8275830012037860060EEE65BB
:100140001A70F0C2D5EBC0E0EAC0E0E9C0E0EE1200
:100150000296D0E0F9D0E0FAD0E0FB12035FFF6036
:10016000AAEBC0E0EAC0E0E9C0E012003ED0E02423
:1001700001F9D0E03400FAD0E0FBE51A0460DCD5E8
:100180001AD980877BFF7A027992D202809C7910FB
:1001900080027908C206C2088008D2D5790A800494
:1001A000790AC2D5E51A047002F51AE4FAFDFEFFD9
:1001B000120003FC7B08200113120003FD7B1030AA
:1001C000000A120003FE120003FF7B20EC3382D5ED
:1001D00092D55013C3E43000069FFFE49EFEE42056
:1001E00001039DFDE49CFCE4CBF8C201EC700CCF54
:1001F000CECDCCE824F8F870F38017C3EF33FFEED0
:1002000033FEED33FDEC33FCEB33FB994002FB0F87
:10021000D8E9EB300105F8D0E0C448B201C0E00AEB
:10022000EC4D4E4F78207B0070C2EAB51A0040BCFE
:10023000C0E0120298D0F0D0E0200104C4C0E0C4B5
:10024000B201C0F0120027D0F0D5F0EB0200771217
:10025000048D011453018E5800E54C00E1420192D7
:100260004F019A44019A4900FA4301A0550184467E
:1002700001844501844703405000E92D00ED2E0123
:10028000102B00F123010E2003292A00A9480000A9
:1002900001083F3F3F00790AA2D520031430050929
:1002A000B910020404B9080104A2D52006025001C5
:1002B000042002689202B519005034C0E07F20305B
:1002C00003197F30A20272067205500F1202EFC2AC
:1002D00002C206C205C2087F30800F300503E9C0A4
:1002E000E012003E300503D0E0F9D0E0B519CC3083
:1002F00005177F30B9100C12003E7F583004077F7D
:10030000788003B9080312003E3002057F2D0200F9
:100310003E7F202008F87F2B2006F322920280CF18
:10032000286E756C6C2900D2011200033001F8C2EE
:1003300001781930D50108F60200A92D504349581B
:100340001200032403B405004001E490033B931220
:10035000002F743A12002FD20375190402018EBBCC
:10036000010689828A83E0225002E722BBFE02E373
:100370002289828A83E49322BB010CE58229F582DB
:10038000E5833AF583E0225006E92582F8E622BBB0
:10039000FE06E92582F8E222E58229F582E5833A24
:1003A000F583E49322BB010689828A83F0225002FE
:1003B000F722BBFE01F322F8BB010DE58229F5828D
:1003C000E5833AF583E8F0225006E92582C8F62253
:1003D000BBFE05E92582C8F222BB010789828A8318
:1003E000020467500B09C5F027F7C5F01937F7224B
:1003F000BBFE0D09F8E325F0F3C5F019E338F3224D
:10040000F889828A8374019325F0C5F0F8E4933863
:1004100022BB010A89828A83F0E5F0A3F02250060C
:10042000F709A7F01922BBFE06F3E5F009F319223C
:10043000EB9FF5F0EA9E42F0E99D42F0E89C45F022
:1004400022E8600FECC313FCED13FDEE13FEEF1377
:10045000FFD8F122E8600FEFC333FFEE33FEED3338
:10046000FDEC33FCD8F122C5F0F8A3E028F0C5F08C
:10047000F8E582158270021583E038F022FAE6FB77
:100480000808E6F925F0F618E6CA3AF622D083D035
:1004900082F8E4937012740193700DA3A393F8741F
:1004A0000193F5828883E4737402936860EFA3A3D9
:1004B000A380DF4572726F723A20253032580A00ED
:1004C00053746172740A00576169742055646973CA
:1004D0006B2F53440A005265616479203F0A004F34
:1004E00070656E20616E642072656E616D6520437B
:1004F000483337364846542E4320746F20434833E0
:1005000037364846542E545854200A002F43483357
:1005100037364846542E430046696C65202F4348C1
:100520003337364846542E43206E6F7420666F75FD
:100530006E6420210A005365742066696C6520632F
:100540007265617465206461746520262074696D2C
:100550006520746F20323030342E30362E30382003
:1005600031353A33393A3230200A002F4348333795
:10057000364846542E5458540054616B65206F75AC
:10058000740A007F64120C58120C6B7BFF7A04799A
:10059000C0120065120A8F8F08120BD27BFF7A04FB
:1005A00079C7120065120CABEF641460077F641208
:1005B0000C5880F17FC8120C58E4F5087F32120CF9
:1005C000587BFF7A0479D6120065120D3AEF641455
:1005D00060090508E508C3940A40E17BFF7A0479C5
:1005E000DF1200657BFF7A05790C1207428F08E560
:1005F00008B442097BFF7A057918120065AF08122A
:100600000BD27BFF7A0579361200657BFF7A05797C
:100610006B750E7C750FEA7DC87C301208F68F086A
:10062000120BD27BFF7A057979120065120CABBFF1
:1006300014077F64120C5880F37FC8120C5802050F
:100640009C8B328A3389348B358A368937AB35AA0D
:1006500036A93712035F600D74012537F537E4358D
:1006600036F53680E8AB35AA36A93712035FFF644A
:100670005C6028EF642F6023E53285338385348204
:100680006B7008E965827003EA6583600E74FF256C
:1006900037F53774FF3536F53680CAE53285338352
:1006A0008534826535700AE53765827004E5366504
:1006B00083600B74012537F537E43536F536C3E52D
:1006C000379534FF22120CF9CDEFCD120CF9CEEF95
:1006D000CE120CF98F4C120CF98F4DCFEECFEFFEEE
:1006E000EDFFE4FCFDECC0E0EDC0E0EEC0E0EFC0EB
:1006F000E0AF4CE4FE7810120454D0E0FBD0E0FAF6
:10070000D0E0F9D0E0F8EF4BFFEE4AFEED49FDEC0A
:1007100048FCECC0E0EDC0E0EEC0E0EFC0E0AF4D63
:10072000E4FCFDFE7818120454D0E0FBD0E0FAD0CF
:10073000E0F9D0E0F8EF4BFFEE4AFEED49FDEC4862
:10074000FC22120B468F09E50964147065120D1125
:100750008F09E50964147055FB7A00794E120B8EEF
:100760007A00794E9000081203786443703F90003D
:10077000091203786420703590000874541203B78E
:1007800090000974581203B790000A74541203B70A
:10079000120D118F09E509B414137B007A00795604
:1007A0007515037D08120BF2120D468F09E4FF1236
:1007B0000D08AF09228B228A2389247F3A120C7CF0
:1007C000CFEDCF120CA5CFECCF120CA5E528452913
:1007D0004527600CAB27AA28A929E4F5F0120411DB
:1007E000120997CEEFCEEE641D7034AB22AA23A976
:1007F00024120B8ECEEFCE7F3B120C7CEEFD7C00E4
:100800002524F524EC3523F523E5284529452760E3
:10081000CFAB27AA28A929EC8DF01203D980C1CF2C
:10082000EECF228B2A8A2B892C7F3C120C7CCFEDB9
:10083000CF120CA5CFECCF120CA5E5304531452FDA
:10084000600CAB2FAA30A931E4F5F01204111209A3
:1008500097CEEFCEEE641E7034AB2AAA2BA92C12D1
:100860000BB0CEEFCE7F3D120C7CEEFD7C00252C34
:10087000F52CEC352BF52BE5304531452F60CFAB12
:100880002FAA30A931EC8DF01203D980C1CFEECF61
:10089000228B388A39893A8D3BE4FF753C01AB38AD
:1008A000AA39A93A853C82758300120378FE645CFC
:1008B000600CEE642F6007EE6004053C80E0EE60A3
:1008C00004053C8003E4F53CAB387E00E53A2FF9A3
:1008D000EE3539FA120B46E53C601A653B6016EFBF
:1008E0006441600DBF14037F4322BF42037FB322E4
:1008F00022AF3C80A9228C0C8D0D120B468F10E587
:100900001064147040120D118F10E51064147030D3
:10091000784EE50FF6E50E08F67B007A00794E7505
:1009200015027D0E120BF218E50DF6E50C08F67AAD
:1009300000794E7515027D10120BF2120D468F10C4
:10094000E4FF120D08AF10228B498A4A894BEA490D
:100950004B603E7F01AB49AA4AA94B8F8275830049
:10096000120378FE645C600BEE642F6006EE600399
:100970000F80E2EE6012AB49AA4AA94B120D40BFAC
:100980001405EF6441600A22AB49AA4AA94B120A36
:10099000F37F35120D2022E4F517F516F515F51441
:1009A0007F407E4B7D4C7C00AB17AA16A915A8147E
:1009B000C31204305020120CECEF6003020CFFE570
:1009C000172401F517E43516F516E43515F515E489
:1009D0003514F51480CA7FFA22E4F518F517F516D8
:1009E000F5157F64CEEFCE7F0D120C9FAF18120C61
:1009F000A5E517FF120CA5AF18AE17AD16AC15780C
:100A000010120441120CA5AF18AE17AD16AC157834
:100A100018120441020CA58B3D8A3E893F12064103
:100A20008F40E540601CAB3DAA3EA93FFD120891F6
:100A3000EF6441600DBF14037F4322BF42037FB3C5
:100A40002222AB3D7E00E53F2540F9EE353EFA120D
:100A50000CBA228F448E438D428C417F39120C7C1C
:100A6000AF44120CA5E543FF120CA5AF44AE43AD55
:100A700042AC417810120441120CA5AF44AE43AD14
:100A800042AC417818120441120CA51209972212A7
:100A90000D4C7F06120C7C7F65120CA5120CF9EF31
:100AA000649A60037FFA227F15120C7C7F06120C79
:100AB000A57F14120C94120CF9BF51037F14227FEE
:100AC000FA228F488E478D468C457F4A120C7CAFA8
:100AD00048120CA5E547FF120CA5AF48AE47AD463E
:100AE000AC457810120441120CA5E4FF120CA512BB
:100AF0000997227F2F120C7C12035FFEFF801AEEF3
:100B0000601C740129F9E43AFA12035FFE645C6028
:100B100003BE2F02E4FECFEECF120CA580E122EF40
:100B2000B40A07740D120B2A740A309811A899B8E8
:100B3000130CC2983098FDA899C298B811F6309954
:100B4000FDC299F599228B118A128913120AF3AB0F
:100B500011AA12A91312035FFF645C6004EFB42FA3
:100B6000031209D97F32120D20228B1D8A1E891F84
:100B7000120AF3AB1DAA1EA91F12035FFF645C607B
:100B800004EFB42F031209D97F40120D20227F27D2
:100B9000120CF6CEEFCECDEECDEE6010120CF9EFCA
:100BA0001203A5740129F9E43AFADEF0CFEDCF2261
:100BB0007F2D120CF6CEEFCECDEECDEE60101203EF
:100BC0005FFF120CA5740129F9E43AFADEF0CFEDCB
:100BD000CF22EF6414601A7BFF7A0479B3750C009E
:100BE0008F0D1200657FC8120C587FC8120C5880F8
:100BF000F4227F2E120C9CAF15120CA5E515601186
:100C000012035FFF120CA5740129F9E43AFAD51515
:100C1000EF227F2C120C9CEE601012035FFF120C6F
:100C2000A5740129F9E43AFADEF022CEEDCECDEF3B
:100C3000CD7F0B120C7CCFEDCF120CA5CFEECF02E7
:100C40000CA57F05120C587F5A120D20CCEFCC7FDB
:100C500005120C58CFECCF22CDEFCDCFEDCF1DEF4D
:100C60006008120C8D120C8D80F1227598507587DA
:100C700080758921758DF3D28ED2992290BDF1EFC6
:100C8000F07F0A90BDF1E030E402DFF7227FFA1234
:100C90000C947FFACEEFCE1FEE70F922CEEDCE127D
:100CA0000C7CCFEECF90BCF0EFF022120CECEF609A
:100CB00003120CFF7F30120D2022EA494B60031211
:100CC0000AF37F34120D2022CEEFCE7F0A120C9F42
:100CD000120CF922CEEFCE7F0C120C9F1206C52209
:100CE000787FE4F6D8FD75818D02058330B2047FEC
:100CF0000080027F0122120C7C90BCF0E0FF227F7A
:100D000022120C7C120CF922CDEFCD7F36120D276A
:100D1000227DFF7F37120D2722E4FD7F0D020C2B71
:100D2000120C7C12099722120C9C120997227F68E0
:100D3000120CD4227F2B120CC8227F31120D2022DC
:0D0D40007DFF120891227F38120D20222223
:00000001FF
