:10000000021728E709F608DFFA8046E709F208DF59
:10001000FA803E88828C83E709F0A3DFFA8032E31E
:1000200009F608DFFA8078E309F208DFFA807088C1
:10003000828C83E309F0A3DFFA806489828A83E0FB
:10004000A3F608DFFA805889828A83E0A3F208DFEA
:10005000FA804C80D280FA80C680D4806980F28099
:1000600033801080A680EA809A80A880DA80E280BF
:10007000CA803389828A83ECFAE493A3C8C582C814
:10008000CCC583CCF0A3C8C582C8CCC583CCDFE97E
:10009000DEE7800D89828A83E493A3F608DFF9EC1A
:1000A000FAA9F0EDFB2289828A83ECFAE0A3C8C5A5
:1000B00082C8CCC583CCF0A3C8C582C8CCC583CCCC
:1000C000DFEADEE880DB89828A83E493A3F208DF3B
:1000D000F980CC88F0EF60010E4E60C388F0ED240B
:1000E00002B4040050B9F582EB2402B4040050AF0E
:1000F000232345822390005373BB010689828A83A0
:10010000E0225002E722BBFE02E32289828A83E4D6
:100110009322BB010CE58229F582E5833AF583E061
:10012000225006E92582F8E622BBFE06E92582F880
:10013000E222E58229F582E5833AF583E49322BB46
:10014000010989828A83F8E028F022500327F722E8
:10015000BBFE05F8E328F3228A838982F8E493281A
:1001600022BB010689828A83F0225002F722BBFE5D
:1001700001F322BB010789828A8302030F500B0916
:10018000C5F027F7C5F01937F722BBFE0D09F8E3D4
:1001900025F0F3C5F019E338F322F889828A8374D5
:1001A000019325F0C5F0F8E4933822BB010A898257
:1001B0008A83F0E5F0A3F0225006F709A7F0192290
:1001C000BBFE06F3E5F009F3192275F0087582000D
:1001D000EF2FFFEE33FECD33CDCC33CCC58233C50C
:1001E000829BED9AEC99E58298400CF582EE9BFE9D
:1001F000ED9AFDEC99FC0FD5F0D6E4CEFBE4CDFAF8
:10020000E4CCF9A88222B800C1B90059BA002DEC9B
:100210008BF084CFCECDFCE5F0CBF97818EF2FFF33
:10022000EE33FEED33FDEC33FCEB33FB10D70399DB
:100230004004EB99FB0FD8E5E4F9FA227818EF2F88
:10024000FFEE33FEED33FDEC33FCC933C910D705A7
:100250009BE99A4007EC9BFCE99AF90FD8E0E4C9C6
:10026000FAE4CCFB2275F010EF2FFFEE33FEED33F6
:10027000FDCC33CCC833C810D7079BEC9AE8994023
:100280000AED9BFDEC9AFCE899F80FD5F0DAE4CD85
:10029000FBE4CCFAE4C8F922EB9FF5F0EA9E42F0C9
:1002A000E99D42F0E89C45F022E8600FECC313FCA6
:1002B000ED13FDEE13FEEF13FFD8F122E8600FEF10
:1002C000C333FFEE33FEED33FDEC33FCD8F122BB3C
:1002D000010789828A830203315005E9F802032568
:1002E000BBFE05E9F802033D22E6FC08E6FD08E650
:1002F000FE08E6FF22BB010789828A83020362505F
:1003000005E9F8020349BBFE05E9F802039322C59B
:10031000F0F8A3E028F0C5F0F8E582158270021528
:1003200083E038F022ECF608EDF608EEF608EFF67A
:1003300022ECF0A3EDF0A3EEF0A3EFF022ECF20834
:10034000EDF208EEF208EFF222D083D082E493F6C9
:1003500008740193F608740293F608740393F67414
:100360000473A8828583F0D083D0821203791203AC
:1003700079120379120379E473E493A3C583C5F07A
:10038000C583C8C582C8F0A3C583C5F0C583C8C5E9
:1003900082C822D083D082E493F208740193F208D9
:1003A000740293F208740393F2740473FAE6FB0880
:1003B00008E6F925F0F618E6CA3AF622D083D0828C
:1003C000F8E4937012740193700DA3A393F8740171
:1003D00093F5828883E4737402936860EFA3A3A308
:1003E00080DFE536242AF8E6053622782730070232
:1003F000782AE475F0011203AC0200F92000EB7FCB
:100400002ED2008018EF540F2490D43440D4FF3003
:10041000040BEF24BFB41A0050032461FFE53760DA
:10042000021537053AE53A7002053930070D78278D
:10043000E475F0011203ACEF02016102152B7403A5
:10044000D2078003E4C207F5368B278A288929E47E
:10045000F537F539F53AE53760077F2012041D803E
:10046000F57538FFC201C200C202C203C205C2064E
:10047000C2081203EBFF700D3007057F0012042E37
:10048000AF3AAE3922B4255FC2D5C2041203EBFFE6
:1004900024D0B40A00501A75F00A783730D5050810
:1004A000B6FF0106C6A426F620D5047002D203804A
:1004B000D924CFB41A00EF5004C2E5D20402062EAC
:1004C000D20180C6D20080C0D20280BCD2D580BA10
:1004D000D20580B47F2012041D2002077401B537B5
:1004E0000040F11203E2FF12041D020456D208D2AA
:1004F0000680951203E2FB1203E2FA1203E2F94AC4
:100500004B700679FF7A067BFF20022EE537602AC2
:100510007E008E8275830012011260060EEE653831
:1005200070F0C2D5EBC0E0EAC0E0E9C0E0EE120630
:1005300075D0E0F9D0E0FAD0E0FB1200F9FF60AA34
:10054000EBC0E0EAC0E0E9C0E012041DD0E0240105
:10055000F9D0E03400FAD0E0FBE5380460DCD538AF
:10056000D980877BFF7A067971D202809C791080CE
:10057000027908C206C2088008D2D5790A800479B7
:100580000AC2D5E538047002F538E4FAFDFEFF1220
:1005900003E2FC7B082001131203E2FD7B10300014
:1005A0000A1203E2FE1203E2FF7B20EC3382D592B3
:1005B000D55013C3E43000069FFFE49EFEE4200103
:1005C000039DFDE49CFCE4CBF8C201EC700CCFCEA3
:1005D000CDCCE824F8F870F38017C3EF33FFEE3387
:1005E000FEED33FDEC33FCEB33FB994002FB0FD8FF
:1005F000E9EB300105F8D0E0C448B201C0E00AECF4
:100600004D4E4F78207B0070C2EAB5380040BCC028
:10061000E0120677D0F0D0E0200104C4C0E0C4B2FC
:1006200001C0F0120406D0F0D5F0EB02045612031C
:10063000BC04F353056D5804C44C04C04205714F0B
:1006400005794405794904D943057F550563460575
:100650006345056347071F5004C82D04CC2E04EFE3
:100660002B04D02304ED2007082A04884800000446
:10067000E73F3F3F00790AA2D5200314300509B9AE
:1006800010020404B9080104A2D520060250010496
:100690002002689202B537005034C0E07F2030035A
:1006A000197F30A20272067205500F1206CEC202E6
:1006B000C206C205C2087F30800F300503E9C0E0E2
:1006C00012041D300503D0E0F9D0E0B537CC300579
:1006D000177F30B9100C12041D7F583004077F7843
:1006E0008003B9080312041D3002057F2D02041D8A
:1006F0007F202008F87F2B2006F322920280CF284B
:100700006E756C6C2900D2011203E23001F8C2014F
:10071000783730D50108F60204882D504349581225
:1007200003E22403B405004001E490071A93120485
:100730000E743A12040ED20375370402056D7F64FD
:100740001216791216B07BFF7A0A79051204441248
:1007500014A38F2212162C7BFF7A0A790C12044400
:100760001216F2EF641460077F6412167980F17F2D
:10077000C8121679E4F5227F321216797BFF7A0AC5
:10078000791B120444121772EF641460090522E504
:1007900022C3940A40E17BFF7A0A79241204447B45
:1007A000007A007969120F9D8F2212162CE47BA12A
:1007B0007A07F9F8E8C0E078691202E9D0E0F812A7
:1007C00002068F2D8E2C8D2B8C2A7BFF7A0A793096
:1007D0001204447BFF7A0A79431204447BFF7A0AAD
:1007E00079491215C28F22E5226414706F121766C0
:1007F0008F4C8E4B8D4A8C497BFF7A0A79558F2D11
:100800008E2C8D2B8C2A1204447BFF7A0A79661277
:10081000044412146D8F2212162CE54CFFE54B5444
:1008200001FEE48E478F487BFF7A0A797385472A59
:1008300085482B120444E54845476050752A0075E9
:100840002B00752C007B017A0079007D01120B9D35
:100850008F2212162C12146D8F22802DE522B442A5
:10086000267BFF7A0A798E1204447B007A00790095
:100870001217018F2212162CE4F547F548F54CF5B6
:100880004BF54AF5498005AF2212162C7BFF7A0AF8
:10089000799612044474002548F974003547FA7BB0
:1008A00001752AFF752B0A752CA3854C30854B2FBB
:1008B000854A2E85492D12043EEF2548F548EE3530
:1008C00047F547E4FF120D177BFF7A0A79D8120427
:1008D00044D28C752301752401E58B541FF525AF97
:1008E0008CEFFEAB8AEBFF74002548F974003547A6
:1008F000FA7B01752AFF752B0A752CE8752D077593
:100900002ED4752F00852330753100852432753340
:10091000008525348E358F3612043EEF2548F54884
:10092000EE3547F547E523B4060AE524540F700475
:100930007F018002E4FF120D177BFF7A0B7923857C
:10094000472A85482B1204440524E524641E708937
:100950000523E523640C60030208D67BFF7A0B793C
:100960003812044474002548F974003547FA7B01B5
:10097000752AFF752B0B752C4312043EEF2548F5A5
:1009800048EE3547F547FE74002548F974003EFAF5
:100990007B01752AFF752B0B752C6712043EEF2522
:1009A00048F548EE3547F5477F01120D177BFF7A72
:1009B0000B798C120444E4FF1217478F2212162C75
:1009C0007BFF7A0B79931204441216F2BF14077F4F
:1009D0006412167980F37FC81216790207574572A0
:1009E000726F723A20253032580A00437572726570
:1009F0006E742066696C652073697A65206973205E
:100A0000256C640A0053746172740A00576169743A
:100A100020556469736B2F53440A005265616479F1
:100A2000203F0A004469736B51756572793A200062
:100A30006672656520636170203D20256C64204DE1
:100A4000420A004F70656E0A002F4D595F414443C2
:100A50002E5458540046696C652073697A65203DB0
:100A600020256C640A004C6F6361746520746169B1
:100A70006C0A0052656164206C6173742074616952
:100A80006C203D2025642042797465730A0043720E
:100A9000656174650A0057726974652062656769EB
:100AA0006E0A00D4DAB1BEB4CECCEDBCD3CAFDBE62
:100AB000DDD6AEC7B02CB8C3CEC4BCFED2D1D3D025
:100AC000CAFDBEDDB5C4B3A4B6C8CAC720256C64D0
:100AD00020D7D6BDDA0D0A005772697465204144EB
:100AE0004320646174610A00596561723D253034A8
:100AF000642C204D6F6E74683D253032642C204488
:100B00006174653D253032642C20486F75723D2537
:100B10003032642C204144435F646174613D25752B
:100B20000D0A0043757272656E7420746F74616C87
:100B30002069732025640A00577269746520656E08
:100B4000640A00202A2A2A2A2A2A2A2A2A2A2A2A1F
:100B50002A2A2A2A2A2A2A2A2A2A2A2A2A2A2A2AF5
:100B60002A2A2A2A2A2000D5E2B4CEB5C441444319
:100B7000CAFDBEDDB5BDB4CBBDE1CAF82CB3CCD047
:100B8000F2BCB4BDABCDCBB3F60D0A00436C6F73B2
:100B9000650A0054616B65206F75740A008B268AA4
:100BA0002789288D29E52B452C452A600AAB2AAADE
:100BB0002BA92CE41201617F011216C11217228F9A
:100BC0002EE52E64416003020C937F0C1216C17F48
:100BD000681216DD121722121722E48F32F531F552
:100BE00030F52F121722EFFEE532F532E5314EF5E2
:100BF00031E530F530E52FF52F1217228F2EE4FC6A
:100C0000FDFE78101202BCE5324FF532E5314EF5AB
:100C100031E5304DF530E52F4CF52F7F0C1216C124
:100C20007F6C1216DD121722121722E48F36F5356B
:100C3000F534F533121722EFFEE536F536E5354E7D
:100C4000F535E534F534E533F533121722E4FCFDD0
:100C5000FE78101202BCE5364FF536E5354EF53517
:100C6000E5344DF534E5334CF533E53624FEFFE548
:100C7000353401FEE43534FDE43533FCAB32AA31C2
:100C8000A930A82FC312029840097DFF7F6B12166E
:100C90004C8003752EFF7F4B1216C1AF291216DD53
:100CA0001213738F2DE52EF46007AD2E7F6B121695
:100CB0004CE52D64146003AF2D227F271216C1125C
:100CC00017221217228F2E12171C121163E52E60A5
:100CD00043AB26AA27A928852E3E120E2B8F2DE581
:100CE0002D6414600122E52E25E0FEE42528F52878
:100CF000EE3527F527E52B452C452A600BAB2AAAB4
:100D00002BA92CE52E12013FC3E529952EF529606C
:100D100003020BB7AF2D22EF7003020DE5E5482467
:100D2000FFE5473401C313F5266040752B00752C91
:100D300000752D007B017A007900FD1210558F2679
:100D400012162C7F01121679E5475401FEAF48E5D3
:100D50004754FEFC7D00ED2400F974003CFA7B0151
:100D600078007C000D1200D35347011217668F4C98
:100D70008E4B8D4A8C49E54845476022C3E495482F
:100D8000FF74029547FEFAC3E54C9FF54CE54B9A7C
:100D9000F54BE54A9400F54AE5499400F549854C40
:100DA0002D854B2C854A2B85492A7F681213C07BE1
:100DB000FF7A0979EB854C2D854B2C854A2B85498B
:100DC0002A120444752B00752C00752D007B017AC6
:100DD000007900E4FD1210558F2612162C12146DA6
:100DE0008F2602162CC3E547943E403EE54713FD8F
:100DF000752B00752C00752D007B017A007900128F
:100E000010558F2612162CE5475401FEAF48E547D2
:100E100054FEFC7D00ED2400F974003CFA7B01785F
:100E2000007C000D1200D3534701228B378A38898A
:100E3000398F3D8E3C8D3B8C3AE4F5407F54121641
:100E4000C1AF3D1216DDE53CFF1216DDAF3DAE3CF5
:100E5000AD3BAC3A78101202A91216DDAF3DAE3CA4
:100E6000AD3BAC3A78181202A91216DDAF3E12164D
:100E7000DDE53E25E0FEE47806CEC313CE13D8F9B7
:100E8000F5428E41E5424541602F1213738F3FE5D5
:100E90003FB41D25AB37AA38A9391215788F3F7F8B
:100EA000551216C1E53F2539F539E43538F538E5F1
:100EB00042154270CF154180CBE5424541700D127D
:100EC00013738F3FE53FB414037F1422E53FB4163C
:100ED00002FF221216630540E54064036003020E20
:100EE0003CAF3F228B308A3189328F368E358D343C
:100EF0008C33E4F5397F561216C1AF361216DDE594
:100F000035FF1216DDAF36AE35AD34AC3378101286
:100F100002A91216DDAF36AE35AD34AC33781812F7
:100F200002A91216DDAF371216DDE53725E0FEE423
:100F30007806CEC313CE13D8F9F53B8E3AE53B4580
:100F40003A602F1213738F38E538B41E25AB30AAE0
:100F500031A9327D4012160A7F571216C1744025FE
:100F600032F532E43531F531E53B153B70CF153ABA
:100F700080CBE53B453A700D1213738F38E538B4DA
:100F800014037F1422E538B41602FF2212166305FB
:100F900039E53964036003020EF5AF38228B268AE7
:100FA0002789287F3F12175F8F29E5296414600382
:100FB0000210457F271216C112171C12171CCDEF05
:100FC000CD121722CEEFCE1217228F2A1217228FA0
:100FD0002BCFEECFEFFEEDFFE4FCFDECC0E0EDC06B
:100FE000E0EEC0E0EFC0E0AF2AE4FE78101202BCF1
:100FF000D0E0FBD0E0FAD0E0F9D0E0F8EF4BFFEE24
:101000004AFEED49FDEC48FCECC0E0EDC0E0EEC06E
:10101000E0EFC0E0AF2BE4FCFDFE78181202BCD07C
:10102000E0FBD0E0FAD0E0F9D0E0F8EF4BFFEE4A79
:10103000FEED49FDEC48FCAB26AA27A9281202CFF9
:10104000121722800DAB26AA27A9281202F500004C
:101050000000AF29228B278A2889298D2AE52C4573
:101060002D452B600AAB2BAA2CA92DE41201617F20
:101070004C1216C1AF2A1216DD1213738F2EE52EF5
:1010800064146001227F271216C112172212172240
:101090008F2F12171C121163E52F6040AB27AA286F
:1010A000A929852F37120EE48F2EE52E64146001D6
:1010B00022E52F25E0FEE42529F529EE3528F5283F
:1010C000E52C452D452B600BAB2BAA2CA92DE52F2C
:1010D00012013FC3E52A952FF52A7093AF2E228B7C
:1010E000188A19891A8B1B8A1C891DAB1BAA1CA97B
:1010F0001D1200F9600D7401251DF51DE4351CF568
:101100001C80E8AB1BAA1CA91D1200F9FF645C60DF
:1011100028EF642F6023E518851983851A826B7088
:1011200008E965827003EA6583600E74FF251DF58A
:101130001D74FF351CF51C80CAE518851983851AB6
:1011400082651B700AE51D65827004E51C6583607D
:101150000B7401251DF51DE4351CF51CC3E51D951B
:101160001AFF22121722CDEFCD121722CEEFCE1288
:1011700017228F371217228F38CFEECFEFFEEDFFF9
:10118000E4FCFDECC0E0EDC0E0EEC0E0EFC0E0AF9D
:1011900037E4FE78101202BCD0E0FBD0E0FAD0E0D9
:1011A000F9D0E0F8EF4BFFEE4AFEED49FDEC48FCCC
:1011B000ECC0E0EDC0E0EEC0E0EFC0E0AF38E4FC32
:1011C000FDFE78181202BCD0E0FBD0E0FAD0E0F9C6
:1011D000D0E0F8EF4BFFEE4AFEED49FDEC48FC2273
:1011E0008B088A09890A7F3A1216C1CFEDCF1216F1
:1011F000DDCFECCF1216DDE50E450F450D600CABD3
:101200000DAA0EA90FE4F5F01201AB121373CEEF85
:10121000CEEE641D7034AB08AA09A90A121578CE67
:10122000EFCE7F3B1216C1EEFD7C00250AF50AECDD
:101230003509F509E50E450F450D60CFAB0DAA0E3A
:10124000A90FEC8DF012017380C1CFEECF228B106D
:101250008A1189127F3C1216C1CFEDCF1216DDCF55
:10126000ECCF1216DDE51645174515600CAB15AA37
:1012700016A917E4F5F01201AB121373CEEFCEEE00
:10128000641E7034AB10AA11A91212159DCEEFCEB8
:101290007F3D1216C1EEFD7C002512F512EC3511D2
:1012A000F511E5164517451560CFAB15AA16A91718
:1012B000EC8DF012017380C1CFEECF228B528A5396
:1012C00089548D55E4FF755601AB52AA53A9548534
:1012D0005682758300120112FE645C600CEE642F6E
:1012E0006007EE6004055680E0EE6004055680035A
:1012F000E4F556AB527E00E5542FF9EE3553FA1261
:1013000015C2E556601A65556016EF6441600DBF61
:1013100014037F4322BF42037FB32222AF5680A92A
:10132000228B668A678968EA494B603E7F01AB661B
:10133000AA67A9688F82758300120112FE645C603F
:101340000BEE642F6006EE60030F80E2EE6012ABDE
:1013500066AA67A968121778BF1405EF6441600A8E
:1013600022AB66AA67A9681214D67F3512175F22CE
:101370001216DDE4F546F545F544F5437F407E4B16
:101380007D4C7C00AB46AA45A944A843C3120298F1
:101390005020121734EF600302173EE5462401F592
:1013A00046E43545F545E43544F544E43543F54335
:1013B00080CA7FFA22E4F52DF52CF52BF52A7F64FF
:1013C000CEEFCE7F0D1216C1CFEECF1216DDAF2DB0
:1013D0001216DDE52CFF1216DDAF2DAE2CAD2BACB9
:1013E0002A78101202A91216DDAF2DAE2CAD2BAC4F
:1013F0002A78181202A90216DD8B578A58895912C9
:1014000010DF8F5AE55A601CAB57AA58A959FD1234
:1014100012BCEF6441600DBF14037F4322BF42033F
:101420007FB32222AB577E00E559255AF9EE355895
:10143000FA121701228B5F8A6089617F3E12175F63
:101440008F62E562B414167F271216C1121722129A
:101450001163AB5FAA60A9611202CF800DAB5FAAD6
:1014600060A9611202F500000000AF62227FFF7EDA
:10147000FF7DFF7CFF8F2A8E298D288C277F4A12C3
:1014800016C1AF2A1216DDE529FF1216DDAF2AAE0E
:1014900029AD28AC2778101202A91216DDE4FF123C
:1014A0001370221217847F061216C17F651216DD93
:1014B000121722EF649A60037FFA227F151216C179
:1014C0007F061216DD7F141216EA121722BF51038F
:1014D0007F14227FFA227F2F1216C11200F9FEFF1D
:1014E000801AEE601C740129F9E43AFA1200F9FE40
:1014F000645C6003BE2F02E4FECFEECF1216DD80E7
:10150000E122CEEDCE7F2E1216C1CFEECF1216DD28
:10151000AF511216DDE55160111200F9FF1216DD10
:10152000740129F9E43AFAD551EF22EFB40A0774AD
:101530000D121536740A309811A899B8130CC29878
:101540003098FDA899C298B811F63099FDC299F566
:1015500099228F5E8E5D8D5C8C5B7F391216C1AFD8
:101560005E1216DDE55DFF1216DD78101216D278D8
:10157000181216D2121373227F271216C1121722C5
:10158000CEEFCECDEECDEE6010121722EF1201613C
:10159000740129F9E43AFADEF0CFEDCF227F2D1263
:1015A00016C1121722CEEFCECDEECDEE6010120096
:1015B000F9FF1216DD740129F9E43AFADEF0CFEDF5
:1015C000CF228B268A2789281214D6AB26AA27A9D0
:1015D000281200F9FF645C6004EFB42F031213B506
:1015E0007F3212175F228B638A6489651214D6AB2F
:1015F00063AA64A9651200F9FF645C6004EFB42F6C
:10160000031213B57F4012175F22CEEDCE7F2C124E
:1016100016C1CFEECF1216DDEE60101200F9FF12E8
:1016200016DD740129F9E43AFADEF022EF64146061
:101630001A7BFF7A0979DE752A008F2B1204447F0A
:10164000C81216797FC812167980F422CEEDCECD5D
:10165000EFCD7F0B1216C1CFEDCF1216DDCFEECF3F
:101660000216DD7F051216797F5A12175FCCEFCC78
:101670007F05121679CFECCF22CDEFCDCFEDCF1D68
:10168000EF60081216E31216E380F122CEEFCE7F50
:101690000A1216C1CFEECF1216DD12172222CEEF9C
:1016A000CE7F0C1216C1CFEECF1216DD12116322BF
:1016B000759850758780758921758DF3D28ED29972
:1016C0002290BDF1EFF07F0A90BDF1E030E402DF3F
:1016D000F722AF5EAE5DAD5CAC5B1202A990BCF0D0
:1016E000EFF0227FFA1216EA7FFACEEFCE1FEE70ED
:1016F000F922121734EF600312173E7F3012175F82
:1017000022EA494B60031214D67F3412175F22CEAF
:10171000EDCE1216C1CFEECF121370221217221285
:10172000172290BCF0E0FF22787FE4F6D8FD7581A7
:10173000A802073E30B2047F0080027F01227F2290
:101740001216C112172222CDEFCD7F3612170F22AB
:101750007DFF7F3712170F22E4FD7F0D02164C121A
:1017600016C1121373227F6812169E227F2B121647
:101770008C227F3112175F227DFF1212BC227F382C
:0517800012175F222298
:00000001FF
