:100000000212A6020362E5402434F8E60540227895
:10001000313007027834E475F001120AA60208793B
:100020002000EB7F2ED2008018EF540F2490D434A0
:1000300040D4FF30040BEF24BFB41A0050032461F6
:10004000FFE541600215410544E544700205433077
:10005000070D7831E475F001120AA6EF0208BF021D
:1000600010657403D2078003E4C207F5408B318A20
:10007000328933E4F541F543F544E54160077F20DB
:1000800012004180F57542FFC201C200C202C203E4
:10009000C205C206C20812000FFF700D3007057FAF
:1000A00000120052AF44AE4322B4255FC2D5C20451
:1000B00012000FFF24D0B40A00501A75F00A7841DC
:1000C00030D50508B6FF0106C6A426F620D5047073
:1000D00002D20380D924CFB41A00EF5004C2E5D273
:1000E00004020252D20180C6D20080C0D20280BC7B
:1000F000D2D580BAD20580B47F20120041200207F9
:100100007401B5410040F1120006FF1200410200E7
:100110007AD208D2068095120006FB120006FA1267
:100120000006F94A4B700679237A037BFF20022EE2
:10013000E541602A7E008E82758300120892600677
:100140000EEE654270F0C2D5EBC0E0EAC0E0E9C057
:10015000E0EE120299D0E0F9D0E0FAD0E0FB12080C
:1001600079FF60AAEBC0E0EAC0E0E9C0E01200411C
:10017000D0E02401F9D0E03400FAD0E0FBE54204FD
:1001800060DCD542D980877BFF7A027995D20280E4
:100190009C791080027908C206C2088008D2D579FD
:1001A0000A8004790AC2D5E542047002F542E4FAF5
:1001B000FDFEFF120006FC7B08200113120006FD65
:1001C0007B1030000A120006FE120006FF7B20ECB6
:1001D0003382D592D55013C3E43000069FFFE49ECE
:1001E000FEE42001039DFDE49CFCE4CBF8C201EC9D
:1001F000700CCFCECDCCE824F8F870F38017C3EFA5
:1002000033FFEE33FEED33FDEC33FCEB33FB994073
:1002100002FB0FD8E9EB300105F8D0E0C448B20189
:10022000C0E00AEC4D4E4F78207B0070C2EAB54228
:100230000040BCC0E012029BD0F0D0E0200104C41A
:10024000C0E0C4B201C0F012002AD0F0D5F0EB0239
:10025000007A12098101175301915800E84C00E41B
:100260004201954F019D44019D4900FD4301A35565
:1002700001874601874501874703435000EC2D0065
:10028000F02E01132B00F423011120032C2A00ACC3
:10029000480000010B3F3F3F00790AA2D52003141C
:1002A000300509B910020404B9080104A2D52006DA
:1002B000025001042002689202B541005034C0E0AF
:1002C0007F203003197F30A20272067205500F1290
:1002D00002F2C202C206C205C2087F30800F30059A
:1002E00003E9C0E0120041300503D0E0F9D0E0B5E9
:1002F00041CC3005177F30B9100C1200417F5830C7
:1003000004077F788003B908031200413002057F9B
:100310002D0200417F202008F87F2B2006F3229237
:100320000280CF286E756C6C2900D2011200063055
:1003300001F8C201784130D50108F60200AC2D5019
:100340004349581200062403B405004001E4900319
:100350003E93120032743A120032D2037541040205
:100360000191C0E0C0F0C083C082C0D075D0087FCA
:1003700022121225755C001212BF8F23E52364023E
:1003800060030206237F281212251212BF8F22E576
:1003900022700D7F1D1212257F0E12125F02063190
:1003A0007524007525007526241212BFAB24AA25DA
:1003B000A926EF1208BF74012526F526E43525F598
:1003C00025D522E5F465246003020631E52420E703
:1003D0000302058D540C60030205E8752200E52236
:1003E000652A70030205837E007B00742B2522F9A9
:1003F000EE3400FA120879F523E52454031470034F
:1004000002050E1470030205271470030205482428
:1004100003600302055FE52612098104438004544A
:100420008704658804768904879004989804A999BC
:1004300004BAA004CBA804DCB004EBB804FAC800EA
:10044000000509E52430E60685238002055F8580E6
:100450002302055FE52430E60685238702055F85D4
:10046000872302055FE52430E60685238802055FC1
:1004700085882302055FE52430E606852389020589
:100480005F85892302055FE52430E6068523900217
:10049000055F85902302055FE52430E606852398F5
:1004A00002055F85982302055FE52430E606852373
:1004B0009902055F85992302055FE52430E60685EC
:1004C00023A002055F85A02302055FE52430E60630
:1004D0008523A802055F85A82302055FE52430E691
:1004E000058523B0807985B0238074E52430E60546
:1004F0008523B8806A85B8238065E52430E60585C4
:1005000023C8805B85C82380567523008051E5246D
:100510007A00A9267B0030E607E5231208BF803F5A
:10052000120879F5238038E52430E60EE527FEE54C
:1005300026F5828E83E523F08025E527FEE526F566
:10054000828E83E0F5238017E52430E6057524804C
:10055000800DE527FEE526F5828E83E493F523E5FD
:100560002420E6127E007B00742B2522F9EE340055
:10057000FAE5231208BF0526E526700205270522A5
:100580000203DEE52430E65B752A008056E524246C
:10059000F0601924107051752B10752A0175240014
:1005A0007F1D1212257F0E12125F8042752B097576
:1005B000220075271175283A852882852783E493C0
:1005C000FFE5227C007B00242BF9EC3400FAEF12CB
:1005D00008BF600C05220528E52870DC052780D8B7
:1005E000752A0D7524008006752A007524807F2BDE
:1005F000121225E52A2407F522FF12125F75240046
:10060000752500752624AB24AA25A926120879FF92
:1006100012125F74012526F526E43525F525D5222D
:10062000E5800EE523B40A028002E5237F2312123F
:1006300025D0D0D082D083D0F0D0E032120FA68F58
:100640002A12115C7BFF7A0A79C3120068121265C4
:10065000EF641460161210D4EF60097BFF7A0A79F8
:10066000D20200687F6412120180E2C2957FC81234
:100670001201E4F5297F321212017BFF7A0A79E632
:100680001200681213008F2AE52A6414601EE52AFE
:10069000648260181212FAEFC394034006E52994AD
:1006A0000550090529E529C3946440C9E52AB482A7
:1006B0000B7BFF7A0A79EF12006880881212FAEF3A
:1006C000C39403500C7BFF7A0A79FC12006802087D
:1006D000597B007A00795D1210F68F29E529B42440
:1006E00016245DF8E4F6F5347535007536657BFF44
:1006F0007A0B790C1200687BFF7A0B791B12006869
:10070000785D7C007D007BFF7A0B7921120A7312E1
:10071000129A8F2AE52A64B36009E52A64426003CD
:100720000207BCE52A785D7C007D007BFFB4B30640
:100730007A0B793180047A0B7934120A737534009C
:1007400075350075365D7BFF7A0B794012006812B3
:10075000129A8F2AE52A641D7054FB7A00795D1283
:1007600010F67A00795D8B2E8A2F8930120879FF76
:10077000642E602EEFB4050BAB2EAA2FA93074E5C2
:100780001208BFAB2EAA2FA93090000BE41208D19B
:10079000852E34852F358530367BFF7A0B794E12C6
:1007A00000687F33121225120E328F2A80A6E52AA6
:1007B00064427003020859AF2A020856AF2A121188
:1007C0005C752BC87BFF7A0B7960753400852B35FF
:1007D000120068E52B606FD3944040057529408076
:1007E00003852B29E529FD7C0075360075370075DA
:1007F000382C7B007A00795D120CA28F2A12115CD2
:10080000C3E52B952DF52BE4F52AE52A652D70021D
:10081000E52C60157BFF7A0B797D745D252AF8E65F
:10082000F534120068052A80E1C3E52D9529E52CF1
:100830009400509F7BFF7A0B79801200687BFF7ACF
:100840000B79821200687BFF7A0B7990120068E4C2
:10085000FF1212CE8F2A12115C7BFF7A0B7997124E
:100860000068121265BF14077F6412120180F3D270
:10087000957F64121201020644BB010689828A83B5
:10088000E0225002E722BBFE02E32289828A83E44F
:100890009322BB010CE58229F582E5833AF583E0DA
:1008A000225006E92582F8E622BBFE06E92582F8F9
:1008B000E222E58229F582E5833AF583E49322BBBF
:1008C000010689828A83F0225002F722BBFE01F3DF
:1008D00022F8BB010DE58229F582E5833AF583E82C
:1008E000F0225006E92582C8F622BBFE05E92582E2
:1008F000C8F222BB010789828A83020A90500B0941
:10090000C5F027F7C5F01937F722BBFE0D09F8E34C
:1009100025F0F3C5F019E338F322F889828A83744D
:10092000019325F0C5F0F8E4933822BB010A8982CF
:100930008A83F0E5F0A3F0225006F709A7F0192208
:10094000BBFE06F3E5F009F31922EB9FF5F0EA9EF2
:1009500042F0E99D42F0E89C45F022E8600FECC3CC
:1009600013FCED13FDEE13FEEF13FFD8F122E86048
:100970000FEFC333FFEE33FEED33FDEC33FCD8F164
:1009800022D083D082F8E4937012740193700DA387
:10099000A393F8740193F5828883E47374029368D7
:1009A00060EFA3A3A380DFE709F60870FA8046E7AB
:1009B00009F20870FA803E88828C83E709F0A37000
:1009C000FA807EE309F60870FA8076E309F208708F
:1009D000FA806E88828C83E309F0A370FA806289C2
:1009E000828A83E0A3F60870FA805689828A83E0BF
:1009F000A3F20870FA804A80D280FA80C680D48040
:100A00006580F28031801080A680EA809A80A8807C
:100A1000DA80E280CA803189828A83ECFAE493A387
:100A2000C8C582C8CCC583CCF0A3C8C582C8CCC514
:100A300083CC70E9800D89828A83E493A3F60870E1
:100A4000F9ECFAA9F0EDFB2289828A83ECFAE0A3A3
:100A5000C8C582C8CCC583CCF0A3C8C582C8CCC5E4
:100A600083CC70EA80DD89828A83E493A3F20870E4
:100A7000F980CE88F0ED2402B4040050C4F582EB76
:100A80002402B4040050BA23234582239009F7734B
:100A9000C5F0F8A3E028F0C5F0F8E58215827002F1
:100AA0001583E038F022FAE6FB0808E6F925F0F6AF
:100AB00018E6CA3AF6224572726F723A2025303231
:100AC000580A005761697420556469736B2F534449
:100AD0000A00457869742055534220686F7374206A
:100AE0006D6F64650A005265616479203F0A0044B5
:100AF000657669636520676F6E650A00556E6B6E7B
:100B00006F776E206465766963650A005564697362
:100B10006B496E666F3A2025730A004F70656E0A46
:100B2000005C4335315C43483337364846542E43E6
:100B3000005C2A005C4335315C43483337362A0079
:100B40004C6973742066696C652025730A002A2A33
:100B50002A20456E756D4E616D653A2025730A0039
:100B6000B4D3CEC4BCFED6D0B6C1B3F6B5C4C7B0FC
:100B70002564B8F6D7D6B7FBCAC73A0A00254300A2
:100B80000A00CEC4BCFED2D1BEADBDE1CAF80A0097
:100B9000436C6F73650A0054616B65206F75740A4E
:100BA000008B188A19891A8B1B8A1C891DAB1BAAFA
:100BB0001CA91D120879600D7401251DF51DE43571
:100BC0001CF51C80E8AB1BAA1CA91D120879FF6448
:100BD0005C6028EF642F6023E518851983851A82ED
:100BE0006B7008E965827003EA6583600E74FF2507
:100BF0001DF51D74FF351CF51C80CAE51885198389
:100C0000851A82651B700AE51D65827004E51C6506
:100C100083600B7401251DF51DE4351CF51CC3E52F
:100C20001D951AFF221212BFCDEFCD1212BFCEEFCB
:100C3000CE1212BF8F1E1212BF8F1FCFEECFEFFE4C
:100C4000EDFFE4FCFDECC0E0EDC0E0EEC0E0EFC085
:100C5000E0AF1EE4FE781012096ED0E0FBD0E0FA9F
:100C6000D0E0F9D0E0F8EF4BFFEE4AFEED49FDECA5
:100C700048FCECC0E0EDC0E0EEC0E0EFC0E0AF1F2C
:100C8000E4FCFDFE781812096ED0E0FBD0E0FAD04B
:100C9000E0F9D0E0F8EF4BFFEE4AFEED49FDEC48FD
:100CA000FC228B318A3289337F3A121225CFEDCF65
:100CB00012125FCFECCF12125FE537453845366030
:100CC0000CAB36AA37A938E4F5F012092B120E3214
:100CD000CEEFCEEE641D7034AB31AA32A9331210C0
:100CE000F6CEEFCE7F3B121225EEFD7C002533F5CC
:100CF00033EC3532F532E5374538453660CFAB3623
:100D0000AA37A938EC8DF01208F380C1CFEECF22BC
:100D10008B108A1189127F3C121225CFEDCF12124F
:100D20005FCFECCF12125FE51645174515600CAB8F
:100D300015AA16A917E4F5F012092B120E32CEEF00
:100D4000CEEE641E7034AB10AA11A912121118CE87
:100D5000EFCE7F3D121225EEFD7C002512F512EC40
:100D60003511F511E5164517451560CFAB15AA16D7
:100D7000A917EC8DF01208F380C1CFEECF228B3192
:100D80008A3289338D34E4FF753501AB31AA32A93B
:100D900033853582758300120892FE645C600CEE28
:100DA000642F6007EE6004053580E0EE60040535D1
:100DB0008003E4F535AB317E00E5332FF9EE3532B3
:100DC000FA12108CE535601A65346016EF644160E4
:100DD0000DBF14037F4322BF42037FB32222AF35EE
:100DE00080A9228B598A5A895BEA494B603E7F0170
:100DF000AB59AA5AA95B8F82758300120892FE64D0
:100E00005C600BEE642F6006EE60030F80E2EE6024
:100E100012AB59AA5AA95B1212A0BF1405EF644184
:100E2000600A22AB59AA5AA95B1210397F351212F7
:100E3000E622E4F53CF53BF53AF5397F407E4B7D03
:100E40004C7C00AB3CAA3BA93AA839C312094A50D2
:100E5000201212B2EF60030212C5E53C2401F53CFA
:100E6000E4353BF53BE4353AF53AE43539F539807C
:100E7000CA7FFA22D294C2947F64121201D2947F64
:100E8000641212011212147BFF7A0E79B2120068FA
:100E9000D2AFC294D2977BFF7A0E79C81200681243
:100EA000063CC2977BFF7A0E79DB12006812100AAB
:100EB00080E253746172742043483337362064658E
:100EC0006D6F202E2E2E0A0053657420555342203C
:100ED000686F7374206D6F64650A005365742055E4
:100EE000534220646576696365206D6F64650A000E
:100EF000E4F53DF53CF53BF53A7F64CEEFCE7F0D52
:100F0000121259AF3D12125FE53CFF12125FAF3D66
:100F1000AE3CAD3BAC3A781012095B12125FAF3DAC
:100F2000AE3CAD3BAC3A781812095B02125F8B4ABB
:100F30008A4B894C120BA18F4DE54D601CAB4AAA20
:100F40004BA94CFD120D7EEF6441600DBF14037F71
:100F50004322BF42037FB32222AB4A7E00E54C25E9
:100F60004DF9EE354BFA121274228F518E508D4F7F
:100F70008C4E7F39121225AF5112125FE550FF12CD
:100F8000125FAF51AE50AD4FAC4E781012095B12EC
:100F9000125FAF51AE50AD4FAC4E781812095B12D4
:100FA000125F120E322212130C7F061212257F6579
:100FB00012125F1212BFEF649A60037FFA227F154C
:100FC0001212257F0612125F7F1412124E1212BFE8
:100FD000BF51037F14227FFA228F558E548D538C7C
:100FE000527F4A121225AF5512125FE554FF1212BA
:100FF0005FAF55AE54AD53AC52781012095B12126C
:101000005FE4FF12125F120E322212119CE4F55CB3
:101010001210D4EF6013E55CC394FA400C7BFF7AA6
:10102000117946120068021236E55CC394FA500248
:10103000055C7F0112120180D77F2F121225120842
:1010400079FEFF801AEE601C740129F9E43AFA1265
:101050000879FE645C6003BE2F02E4FECFEECF127F
:10106000125F80E122EFB40A07740D121070740A47
:10107000309811A899B8130CC2983098FDA899C25D
:1010800098B811F63099FDC299F599228B368A37B6
:101090008938121039AB36AA37A938120879FF649B
:1010A0005C6004EFB42F03120EF07F321212E622BE
:1010B0008B568A578958121039AB56AA57A958121D
:1010C0000879FF645C6004EFB42F03120EF07F40D8
:1010D0001212E62220B31CD2947F3212120120B3E6
:1010E0001030B3FD7F3212120130B3FDC2947F0184
:1010F00022C2947F00227F271212BCCEEFCECDEE0B
:10110000CDEE60101212BFEF1208BF740129F9E48E
:101110003AFADEF0CFEDCF227F2D1212BCCEEFCE09
:10112000CDEECDEE6010120879FF12125F74012926
:10113000F9E43AFADEF0CFEDCF2243483337362BCD
:101140004D4353353100457869742055534220642E
:101150006576696365206D6F64650A00EF641460ED
:101160001A7BFF7A0A79B67534008F351200687FD2
:10117000C81212017FC812120180F4227F2E1212AF
:1011800056AF4912125FE5496011120879FF121239
:101190005F740129F9E43AFAD549EF227F1512125A
:1011A000257F0212125F7529641212BFEF6451602D
:1011B00003D529F5C288C289D2A8227F2C121256E3
:1011C000EE6010120879FF12125F740129F9E43AF7
:1011D000FADEF022CEEDCECDEFCD7F0B121225CF71
:1011E000EDCF12125FCFEECF02125F7F0512120118
:1011F0007F5A1212E6CCEFCC7F05121201CFECCF52
:1012000022CDEFCDCFEDCF1DEF60081212471212A5
:101210004780F122759850758780758921758DF307
:10122000D28ED2992290BDF1EFF07F0A90BDF1E00D
:1012300030E402DFF722C2A87F15121225E4FF1264
:10124000125F7F0A0212017FFA12124E7FFACEEF6E
:10125000CE1FEE70F922CEEDCE121225CFEECF903A
:10126000BCF0EFF0221212B2EF60031212C57F3011
:101270001212E622EA494B60031210397F3412122F
:10128000E622CEEFCE7F0A1212591212BF22CEEF03
:10129000CE7F0C121259120C25227B007A00795D48
:1012A0007DFF120D7E22787FE4F6D8FD75819C02C9
:1012B0000E7430B2047F0080027F0122121225904A
:1012C000BCF0E0FF227F221212251212BF22CDEFC6
:1012D000CD7F361212ED227DFF7F371212ED22E410
:1012E000FD7F0D0211D4121225120E322212125657
:1012F000120E32227F6812128E227F2B121282224D
:0D1300007F311212E6227F381212E62222FF
:00000001FF
